:10000000409A0020A93500004B650100953500009D
:100010009535000095350000953500000000000082
:10002000000000000000000000000000E1350000BA
:100030009535000000000000E9370000953500000C
:10004000653800005DF2000065380000653800008A
:10005000653800006538000065380000653800002C
:10006000653800006538000065380000653800001C
:10007000653800006538000065380000653800000C
:1000800065380000653800006538000065380000FC
:1000900065380000653800006538000065380000EC
:1000A00065380000653800006538000065380000DC
:1000B00065380000653800006538000065380000CC
:1000C00065380000653800006538000065380000BC
:1000D00065380000653800006538000065380000AC
:1000E000653800006538000065380000653800009C
:1000F000653800006538000065380000653800008C
:1001000080F0004002E000BF81F0004142001FBFCC
:100110005FEA410392EA030F7FEA226C7FEA236CD5
:100120006AD04FEA1262D2EB1363C1BFD2184140CA
:1001300048404140B8BF5B42192B88BF704710F060
:10014000004F40F4000020F07F4018BF404211F003
:10015000004F41F4000121F07F4118BF494292EA6B
:10016000030F3FD0A2F1010241FA03FC10EB0C0097
:10017000C3F1200301FA03F100F0004302D5494224
:1001800060EB4000B0F5000F13D3B0F1807F06D3D1
:1001900040084FEA310102F10102FE2A51D2B1F1C9
:1001A000004F40EBC25008BF20F0010040EA0300BE
:1001B0007047490040EB0000013A28BFB0F5000F3E
:1001C000EDD2B0FA80FCACF1080CB2EB0C0200FAF4
:1001D0000CF0AABF00EBC25052421843BCBFD04043
:1001E0001843704792F0000F81F4000106BF80F4BD
:1001F00000000132013BB5E74FEA41037FEA226C80
:1002000018BF7FEA236C21D092EA030F04D092F04A
:10021000000F08BF0846704790EA010F1CBF00207E
:10022000704712F07F4F04D1400028BF40F00040DB
:10023000704712F100723CBF00F50000704700F0FB
:10024000004343F0FE4040F4000070477FEA226222
:1002500016BF08467FEA23630146420206BF5FEAF3
:10026000412390EA010F40F4800070474FF00003F3
:1002700004E000BF10F0004348BF40425FEA000CBA
:1002800008BF704743F0964301464FF000001CE062
:1002900050EA010208BF70474FF000030AE000BFB8
:1002A00050EA010208BF704711F0004302D54042F6
:1002B00061EB41015FEA010C02BF84460146002068
:1002C00043F0B64308BFA3F18053A3F50003BCFA83
:1002D0008CF2083AA3EBC25310DB01FA02FC634430
:1002E00000FA02FCC2F12002BCF1004F20FA02F237
:1002F00043EB020008BF20F00100704702F120022A
:1003000001FA02FCC2F1200250EA4C0021FA02F28A
:1003100043EB020008BF20EADC7070474FEA40025E
:10032000B2F1FE4F0FD34FF09E03B3EB12620DD923
:100330004FEA002343F0004310F0004F23FA02F08D
:1003400018BF404270474FF00000704712F1610F34
:1003500001D1420205D110F0004008BF6FF000400B
:1003600070474FF0000070477BB972B90029BEBFDB
:1003700000204FF0004106E008BF00281CBF6FF0CE
:1003800000414FF0FF3000F057B8ADF1080C6DE9B7
:1003900004CE002909DB002B1ADB00F05FF8DDF842
:1003A00004E0DDE9022304B07047404261EB410103
:1003B000002B1BDB00F052F8DDF804E0DDE902233E
:1003C00004B0404261EB4101524263EB430370478A
:1003D000524263EB430300F041F8DDF804E0DDE94D
:1003E000022304B0404261EB41017047524263EB8B
:1003F000430300F033F8DDF804E0DDE9022304B044
:10040000524263EB4303704753B94AB9002908BF0E
:1004100000281CBF4FF0FF314FF0FF3000F00CB848
:10042000ADF1080C6DE904CE00F018F8DDF804E039
:10043000DDE9022304B07047704700BF034611F89E
:10044000012B03F8012B002AF9D17047034613F85A
:10045000012B002AFBD1181A013870472DE9F0470B
:100460008C468E46089E154604461946002B40F0E1
:10047000D080724547D9B2FA82F74FB1C7F1200355
:100480000EFA07FC20FA03F3BD4043EA0C0CBC4013
:100490004FEA154EA8B2BCFBFEF8230C0EFB18CC9D
:1004A00008FB00F943EA0C43994528D9EB1808F1F9
:1004B000FF3204D2994502D9A8F102022B44A3EBE2
:1004C0000903A4B2B3FBFEFC0EFB1C330CFB00F0D3
:1004D00044EA0344A04214D92C190CF1FF3304D28E
:1004E000A04202D9ACF102032C44241A43EA024090
:1004F0001EB1FC40002334607360BDE8F0874246C3
:10050000DDE76346F1E7002A79D0B2FA82F3002BE7
:100510003FD01946C1F1200302FA01F52EFA03F289
:100520000EFA01FE20FA03F343EA0E034FEA154EDA
:1005300000FA01F4B2FBFEFCAFB20EFB1C201A0C59
:100540000CFB07F842EA004290455AD9AA180CF170
:10055000FF3004D2904502D9ACF102002A44A2EB4C
:1005600008029BB2B2FBFEFC0EFB1C220CFB07F741
:1005700043EA02439F4246D9EB180CF1FF3204D202
:100580009F4202D9ACF102022B44DB1B42EA00423B
:1005900002E0AEEB020301224FEA154EAFB2B3FB0D
:1005A000FEFC200C0EFB1C330CFB07F840EA034357
:1005B00098452AD9EB180CF1FF3004D2984502D99E
:1005C000ACF102002B44A3EB0803A4B2B3FBFEFC86
:1005D0000EFB1C330CFB07F744EA0344A74216D971
:1005E0002C190CF1FF3304D2A74202D9ACF102035B
:1005F0002C44E41B43EA00400F46114678E71F21D4
:1006000088E76046ABE76246BFE76046DBE76346E4
:10061000EFE7734506D916B9002108466DE7C6E92C
:10062000000EF9E7B3FA83F787B9734501D3824225
:1006300007D8841A6EEB030301209C461EB90021E3
:100640005BE73846FAE7C6E9004CF8E7C7F1200C4B
:10065000BB4022FA0CF51D4320FA0CF12EFA0CF3E4
:100660000EFA07FE41EA0E014FEA154900FA07F4B7
:10067000B3FBF9F81FFA85FE09FB18300B0C08FBD9
:100680000EFA43EA00439A4502FA07F240D9EB1802
:1006900008F1FF3004D29A4502D9A8F102002B4498
:1006A000A3EB0A0389B2B3FBF9F809FB183308FB83
:1006B0000EFE41EA03418E452CD9691808F1FF333B
:1006C00004D28E4502D9A8F10203294443EA00402E
:1006D000A0FB0298A1EB0E014145CE46434602D352
:1006E00006D14C4504D2B9EB020E68EB0503013884
:1006F000002EA4D0B4EB0E0261EB030101FA0CFC56
:1007000022FA07F34CEA0303F940C6E9003196E701
:100710004046C5E74346D9E738B5194C9DF810E087
:1007200094F828C01CF0010521D163F3420C40016C
:10073000237DA1834FEACE0E0EF0180E00F02000AC
:1007400040EA0E0023F0380303430E48237591213D
:10075000A2FB000384F828C001FB023106A3D3E901
:100760000023FFF751FEC4E90800284638BD0C25D8
:10077000284638BDAFF300808D49FD1A0700000000
:10078000E0160020002AE7842DE9F043044600F13A
:10079000150190F82800237D3B4DC0F3400060F325
:1007A00086138DB023750DF077FA227DA38B374821
:1007B000246102F07902002722759121A3FB000237
:1007C000C4E90277277001FB03212DA3D3E900239D
:1007D000FFF71AFE626A2E4B651BA3FB053502F17B
:1007E000090398428EBF19463A460146226261606B
:1007F00006460DF017FA0694A38B00F1090723486B
:100800009121A3FB000201FB0321224B0793224B02
:1008100005936368049302234FF000080B930DF1D6
:100820002C0917A3D3E90023CDF82090CDF80C8034
:10083000FFF7EAFD104619464FF47A720023FFF7DE
:10084000E3FDC5F347150235EDB2CDE901600321A3
:10085000CDF800803B462A4640460DF093F94946C4
:100860000DF056FC40B994F8283043F0010384F8A9
:1008700028300DB0BDE8F0830C200DB0BDE8F0834A
:100880008D49FD1A07000000E0160020002AE784C9
:10089000A38B2EBAF1DC000089F0000000000000FC
:1008A0002DE9F041C468237923F001038CB0237152
:1008B0000F4605460FF08EFC00200FF0AFFC002124
:1008C00008460FF09DFC0820002225210FF004FDB2
:1008D00001200DF0A9FC002864D01C300FF026FD8B
:1008E000494B0B930BA80FF0E3FC484940F25B60C7
:1008F0000FF08AFD2079C0F3410025300EF08CFF07
:10090000434821460FF03AFC23799B062DD59620CB
:100910000FF0A4FE00231A46194618460FF0D6FD24
:10092000D4F800802E6840460EF064FF06446A68E2
:1009300006F1090100200FF09DFE0FF05BFF0FF0A4
:1009400035FE20460EF066FC811CC9B24046324698
:100950000EF052FF054648BB57B120460EF018FF77
:1009600010BB00200CB0BDE8F0810FF00FFED7E700
:100970002369002BF1D0274D0795274D059540F2AF
:10098000F3150093CDE90377CDE90177069433465B
:100990000122394608950DF0F5F810F0FD0FDCD076
:1009A00000DEDAE700DE98E700DEDAE71B4A1C49E2
:1009B0001C4840F2E51315F09DF81B4B0721A5FBE1
:1009C000030301FB05310EA3D3E90023FFF71CFD50
:1009D00016490246164815F08DF8002585F3118852
:1009E000BFF36F8F0323184602DF124821460FF032
:1009F000C5FB0FF0B5FC6FF08B00B3E7AFF30080E1
:100A000000CA9A3B00000000D6BE898E555555009D
:100A100079FD00000DFB00001DFB0000C8A70100D0
:100A200014A8010080A701008D49FD1A44A8010007
:100A300018A8010099FB000010B500F019F8044651
:100A400060B9094A0948012115F0A5FC00F058F8E1
:100A50002246022114F01FFE002010BD00F050F8C5
:100A600000220121F6E700BFDCA90100289F010058
:100A700013B51A4A1A48032115F08DFC00F066FBE5
:100A800020B9184A1648022115F085FC00F0FCFC3C
:100A90004FF40063144A154800930521144B00F0ED
:100AA0009DF900F099FC40B9124A0D48012115F05A
:100AB00072FC0024204602B010BD00F02FFF08B9E0
:100AC0000D4AF2E700F0DAFF044608B90B4AECE7FA
:100AD00000F074F800F03CF8ECE700BFF2A9010068
:100AE000289F010021AA01004BAA0100B80600209E
:100AF000405900204FAA010078AA01009BAA0100DA
:100B000000487047601A002008B5074814F08EFDB1
:100B10000549064800F010F8BDE80840044A0549B8
:100B2000024815F019BD00BFB8060020601A002069
:100B3000D4330020EF54010010B50122044600F028
:100B40006FF9024B2360204610BD00BFD0A001000A
:100B500000220249027114F0AFBD00BF580100200D
:100B600070B504460D46042912D8DFE801F00309E8
:100B70000B0D0F000A49204600F05AF9257170BD8F
:100B80000849F8E70849F6E70849F4E70849F2E7B1
:100B9000084A09480B46BDE87040012115F004BC25
:100BA0005801002054010020500100204C01002079
:100BB00048010020C3AA0100289F01000048704797
:100BC0006C1A002008B50F4A0F49104815F0C4FCF4
:100BD0000C4A0F490F4815F0BFFC0A4A0E490F484E
:100BE00015F0BAFC074A0E490E4815F0B5FC054A47
:100BF0000D490E4815F0B0FCBDE808400C4814F053
:100C00008EBC00BFD43300201555010058010020D0
:100C10001755010054010020195501005001002012
:100C20001B5501004C0100201D550100480100200A
:100C30006C1A002000487047E2AA010008B514F0C1
:100C400065FD0346064A0748032115F0ADFB00F099
:100C500089FEBDE808400022012114F01CBD00BF40
:100C6000EAAA0100289F0100032908B504D004293D
:100C700009D0022910D008BDFFF7A0FF0121BDE86F
:100C80000840FFF76DBF0221084A094815F083FBB1
:100C9000FFF794FF0321F2E70121064A044815F00B
:100CA0007AFBFFF78BFF0421E9E700BF03AB0100EC
:100CB000289F010017AB01000048704736AB0100C8
:100CC00008B500F0B9FB0022012114F0E4FC00F0AB
:100CD0004DFE034A0348BDE80840032115F05BBB05
:100CE00040AB0100289F01000048704766AB01003F
:100CF000024A0348032115F04EBB00BF72AB01004E
:100D0000289F01000048704785AB0100032908B502
:100D100002D008290AD008BD064B00221A70FFF73E
:100D20004DFF0121BDE80840FFF71ABFFFF746FF5E
:100D30000421F7E75251002013B5104C022000F0B7
:100D40004BFA23780133DBB22370052200920C4862
:100D50000C4A022115F032FB2378042B04D902B08F
:100D6000BDE8104014F03CBC00F0FCFD0022012165
:100D700002B0BDE8104014F08EBC00BF52510020FC
:100D8000289F010090AB010000487047A4AB010010
:100D900008B5094A0948012115F0FDFA022000F0C2
:100DA0001BFA00F049FB0022022114F074FCBDE89C
:100DB000084000F0E3BD00BFAFAB0100289F010079
:100DC00008B50346034A0448022115F0EDFA002055
:100DD00008BD00BFDCAB0100809F01002DE970431E
:100DE00088B00E46154604460E9A194600234FF069
:100DF00000084FF00009CDE90363CDE90133CDE9E7
:100E00000689064B009013F0E5F9C4F8B8002946AE
:100E100008B0BDE8704313F057B900BFF9550100A1
:100E200010B5024C0272C0E9004110BD84A101005E
:100E30002DE9F04182B005460068884200AF0C46BB
:100E400030D010B10368DB689847286800282DD09F
:100E500003685B6998470646236820465B699847A4
:100E6000E8468AB003466A46114905A814F01FFCFB
:100E7000314606A814F01BFC194607A80D4B14F0C8
:100E800016FC08930C4B42F8103F7B600B48002384
:100E90004FF4235101F010FEC5462C602368204614
:100EA0009B6898470837BD46BDE8F081044ED3E7FC
:100EB0000DAC01000002010304000002809F01004C
:100EC00006AC010070B504460E46154600213822D6
:100ED00018F095FDC4E90E6503490022204618F07C
:100EE0005DFC6463204670BDCF560100F0B51D4621
:100EF000134B1F688BB004460E46F7B11F2200212A
:100F00000DF1090018F07BFDAA88D4F80100B4F8AF
:100F1000053000901F2AADF8043028BF1F22237827
:100F200029688DF806300DF109008DF807608DF8FD
:100F3000082018F056FD6846B8470BB0F0BD00BF5A
:100F4000741A002008B500200BF0DAF8034630B11F
:100F50000648074A012115F027FA002008BD03487A
:100F6000044A032115F017FA0120F7E7889F0100D2
:100F70001DAC010033AC0100014B1860704700BF8D
:100F8000741A002030B5124D2C7885B0ECB960236E
:100F900001A801940F49ADF806303023C0E901449F
:100FA000ADF808300BF034FE034638B10A4A0B485E
:100FB000012115F0F9F9204605B030BD01232B7051
:100FC000074A0648032115F0E6F90124F3E700BFBC
:100FD00053510020ED0E000047AC0100889F010036
:100FE00064AC010010B50B4C237883B10BF060FEAC
:100FF000034630B10848094A012115F0D5F900200F
:1010000010BD2070064A0448032115F0C4F90120E0
:10101000F6E700BF53510020889F010079AC010022
:1010200095AC010010B50F4818F04CF830B90E48D7
:101030000E4A012115F0AFF9012010BD03F012F99D
:10104000044638B10A4A03460121074815F0ACF9B5
:101050000220F2E70448074A032115F09CF92046D4
:10106000EBE700BFD09C0100989F0100B2AC0100EB
:10107000F4AC01000EAD010008B5054A0548022197
:1010800015F089F9044B00221A70032008BD00BF37
:101090001FAD0100989F010054510020014B1878AA
:1010A000704700BF5451002007B50B4B1878002340
:1010B00070B10DF106000DF107018DF806308DF8C5
:1010C000073015F027FB9DF80600002808BF0B200D
:1010D00003B05DF804FB00BF5451002037B505464E
:1010E0000C46154817F0EEFF10B3144B1B780BB3EA
:1010F000FFF7DAFFA0420BD2FFF7D6FF104A0090AD
:1011000023461048012115F059F9042003B030BDE1
:101110000023E2B22946012003F018F80346002814
:10112000F4D00848084A012115F03EF90520EDE702
:101130000120EBE70320E9E7D09C01005451002097
:1011400064AD0100989F0100A4AD01002DE9F041BC
:1011500001251D4C04262F46013E02D12846BDE83C
:10116000F08154F8080C17F0ADFF38B9174A184849
:10117000012115F010F900250834EDE754F8080CAA
:1011800014F8041C34F8023CDA07D0F810C0D0F888
:10119000088054BF43F4B01383F4D01313F0010F4D
:1011A00023F48012DCF8003007FA01FE14BF4EEA87
:1011B000030323EA0E03CCF80030D8F80030984738
:1011C0000028D9D0034AD2E798A10100C6AD01009A
:1011D000909F0100D9AD0100022808D8044B03EB11
:1011E000C0010122097953F8300014F0C0BA7047E9
:1011F00090A10100022808D8044B03EBC001002293
:10120000097953F8300014F0B2BA704790A1010088
:10121000022803460AD8064A52F8300002EBC302FD
:1012200001211379994083685B691847704700BFB3
:1012300090A101002DE9FF4105461D4E304617F0F3
:1012400041FF044648B91B4A1B48012115F0A3F889
:101250000024204604B0BDE8F08110220021684639
:1012600018F0CDFB0227D6F808808DF80C70D8F85E
:1012700008300195694630469847104A00280346D1
:10128000106005DA0E4A0C48012115F08DF8DFE7F1
:10129000D8F80030394630469847034608B1094A25
:1012A000F1E7094A04482B46032115F07DF8D0E701
:1012B000609C0100FEAD0100A09F01005C010020C8
:1012C00018AE010038AE01004EAE0100044B1968A3
:1012D000002903DB03488368DB681847704700BFB9
:1012E0005C010020609C010010B502220446FFF75B
:1012F00097FD024B2360204610BD00BFB0A1010046
:1013000008B5014600220A48002317F040FF0246B4
:1013100040B1084A13884FF6FF718B4201D0013368
:10132000138008BDBDE808400348032114F0B9B993
:10133000841A002048510020781A00200346024AEF
:101340000248022115F030B881AE010008A001006A
:1013500030B502298FB0084608D003290BD00129E7
:1013600032D10FB0BDE83040FFF70CBE0FB0BDE882
:101370003040FFF737BE2822002104A818F03FFBB9
:101380004FF6FF7413480022002304A912F05EFBFD
:1013900008B10FB030BD9DF81830122BF2D99DF86E
:1013A000195007A8FF2D0FC8ECD1BDF81A50A5425F
:1013B000E8D1CDE90001CDE902239DF917106A4675
:1013C00004A800F08DF8DDE70FB0BDE83040FFF76E
:1013D000B5BF00BF841A002013B520230E490F4863
:1013E000282217F0C0FE4FF400630D4A0D48009309
:1013F00003210D4BFFF7F2FCFFF7A4FD044640B1BB
:101400000A48FFF7B9FD0A4A0A482023032114F0CD
:10141000CBFF204602B010BD55510020841A002099
:10142000C4AE010098080020806100200113000074
:1014300097AE010008A0010000487047781A00200C
:10144000014B1888704700BF4851002008B5074875
:1014500014F0ECF805490648FFF746FFBDE80840E0
:10146000044A0549024815F077B800BF98080020E3
:10147000781A0020D43300208F570100014812F061
:10148000BBBB00BF9C05002070B51048104D4FF04D
:10149000FF324FF0FF3312F03DFB0024601920347F
:1014A000B4F54A6F0CD10B4B00221A80FFF7E6FF10
:1014B000094A0A48BDE870406423032114F074BF50
:1014C0002022002118F09BFAE8E700BF9C050020CD
:1014D000B81A00204A510020D0AE010018A0010027
:1014E0002DE9F04106460F4615462748274C4FF098
:1014F000FF324FF0FF3312F00DFB4FF06508B8F1EB
:1015000001082AD1214C6523013B31D11F4C6521B3
:1015100022460139A36930D11D490A884FF6FF7070
:1015200082421CBF01320A801A4A1B48022114F071
:101530003BFF30682060B388A38001232377A77125
:1015400095E80F0004F1080686E80F0014F0FCF897
:10155000A061BDE8F041FFF791BF237F33B10622C0
:101560003146204618F053FA0028E8D02034C6E768
:10157000227F002ADDD02034C6E79069984238BF28
:1015800014462032C5E700BF9C050020B81A002091
:101590004A510020F0AE010018A001002DE9F843E7
:1015A0000E46074698B3B9B114F0CEF881461948F3
:1015B0004FF0FF324FF0FF3312F0ACFADFF858C0B3
:1015C0004FF0650E4FF00008BEF1010E01D0B0459E
:1015D00005D3FFF753FF46463046BDE8F8839CF835
:1015E0001C308BB1DCF81830A9EB0303B3F5616F45
:1015F0000AD865460FCD07EB48140FC495E80F00D5
:1016000084E80F0008F101080CF1200CDCE7064625
:10161000E2E700BF9C050020B81A002010B54FF08B
:10162000FF324FF0FF33084812F074FA074A65237F
:101630000024013B03D1FFF721FF204610BD117F9D
:101640000C44A4B22032F4E79C050020B81A002014
:10165000014B1888704700BF4A51002010B5032283
:101660000446FFF7DDFB024B2360204610BD00BFA0
:10167000C4A101000346024A0248022114F094BEAC
:1016800081AE010010A001002DE9F04F01298DB0BD
:10169000084602AF0CD08B1E012B00F22481FFF70D
:1016A000FDFC58B9914A0221914814F074FE01E002
:1016B000FFF7E2FC2C37BD46BDE8F08FFFF7F4FCE6
:1016C0000C28034607D80C2200928A4A0221884837
:1016D00014F074FEEEE7A0F10C040C2C01D8864A3D
:1016E000E1E786486421FFF759FF786110B9844A21
:1016F0000321D9E7834D0D23B4FBF3F33B612B8822
:1017000001332B8014F020F83B692E88B8605C1EF2
:101710007B691C443B69B4FBF3F4FF2C28BFFF2416
:10172000E3B26D468AB0FB6002AA774BBB6107F15A
:10173000180102F1140014F03AF802F11800BE6129
:1017400014F035F87B69BB6102F11C0014F02FF82E
:101750002846BC6114F02BF80523BB6142F8103F0A
:1017600063486A4E00234FF4235101F0A5F9AD46BA
:101770000025AA46FB68AB4203D1654B01221A70D3
:1017800098E77B69A3EB0A083B69984528BF984610
:101790005FFA88F37B605B4BB3F800B0FFF750FE55
:1017A0008146FFF755FF0122594B3260FA681B78DA
:1017B000F271B9F1FF0F5FFA88F228BF4FF0FF090D
:1017C0003272FF284D4AA6F804B083F0010328BF07
:1017D000FF20DFF838B186F80990B571B072F37266
:1017E00002EB4A124FF0000979685FFA89F38B42E5
:1017F00002F120020BF10D0B11D34FF00D0909FB83
:1018000008F909F10C0949463046FFF767FC013534
:10181000EDB2D0B33F4A00942B46012157E712F8AE
:101820001A3CBB7752E9080112F8183CFB7712F812
:10183000173C87F8203032F80E3CB983A7F82130E6
:10184000B96852F8083CB861CB1A4FF6FF718B4269
:1018500028BF0B46A7F8233007F1180C0BF1FF3314
:10186000E646BEE80300596007F120018E45186086
:10187000F44603F10803F3D1DEF8000018609EF887
:101880000410197109F10109AEE7EB468AB07860DE
:1018900002AA2149B96102F1140007F1180113F0FD
:1018A00086FF02F11800BD6113F081FF02F11C00F8
:1018B000BC6113F07CFF5846C7F8188013F077FF1F
:1018C00002F12400C7F8189013F071FF062142F8C6
:1018D000101FB96106487B684FF4435101F0ECF8E2
:1018E000C244DD4646E7FFF7C5FEE3E633AF01003D
:1018F00010A001005DAF0100AAAF01003827002051
:10190000EAAF01004C5100201DB0010055560020E7
:101910005457002045B0010063B0010007B54FF4F3
:1019200000630B4A0B48009304210B4BFFF756FA58
:10193000FFF778FB48B90948094A0F23032114F03F
:1019400033FD012003B05DF804FB0020FAE700BF7F
:10195000BDB00100B80A0020C069002010A001003D
:101960008DB0010000487047B8330020014902489B
:1019700013F0B5BEA0BB0D00780A0020014813F09B
:10198000C3BE00BF780A002008B5094813F04EFE18
:1019900007490848FFF762FE074A0849054814F05E
:1019A000DBFDBDE80840034905480222FFF78ABA7B
:1019B000B80A0020B8330020D43300209F5701001C
:1019C000780A002010B504220446FFF729FA024BDA
:1019D0002360204610BD00BFD8A101002DE9F041D1
:1019E00082B000AFFFF772FC0020FFF711FC194B2B
:1019F0001A6801321A603C23B2FBF3F103FB112495
:101A000024BBFFF70BFE0646FFF71AFD0546FFF75E
:101A10001FFEE8468AB003466A460F49059106A8AC
:101A2000314613F0CFFE294607A813F0CBFE194626
:101A300008A8052313F0C6FE7B6042F8103F074854
:101A400023464FF4235101F037F8C5460837BD4609
:101A5000BDE8F081C4330020C3B0010020A0010024
:101A600001290B4601D1FFF7B9BF024A0248022102
:101A700014F09ABC81AE010020A0010007B54FF41C
:101A800000630F4800930F4A0F4B0721FFF7A6F999
:101A900042F21070FFF7CEFB20B90C4A0C4802212D
:101AA00014F079FC0B484FF47A7113F018FE0A4ACF
:101AB0000748032114F06FFC012003B05DF804FB1C
:101AC000D80C002056B101000072002006B10100C0
:101AD00020A00100980C002032B1010008B509488F
:101AE00013F0A4FD07490848FFF76CFF074A0849AF
:101AF000054814F031FDBDE80840034905480122BE
:101B0000FFF7E0B9D80C0020C8330020D433002000
:101B1000B5570100980C00202DE9F84F8A4600AF18
:101B2000002974D004680E1F361BF50826F007063E
:101B300004EB0608B8F802B01BF0010B16D1E94619
:101B400088B06A46334BCDE90531032342F8103F94
:101B500031485B464FF4C25100F0AEFFCD468BF3E7
:101B60001188BFF36F8F0423184602DF29462046F1
:101B700013F02FFE284434F83030C01A854217D0B5
:101B8000E94688B06A46254BCDE9053A032342F879
:101B9000103F214800234FF4C25100F08DFF002375
:101BA000CD4683F31188BFF36F8F0423184602DFFD
:101BB000B8F8023023F00103A8F802302946204685
:101BC00013F007FE05EB000804EBC8035B88DA0797
:101BD00008D44146204613F045FE42462946204699
:101BE00013F085FEA65BAE1B04EBC6035B88DB0728
:101BF00009D43146204613F035FE2A4631462046A8
:101C000013F075FE35462946204613F0E7FDBD4624
:101C1000BDE8F88FAFB10100E89F010086B1010077
:101C20002DE9F04F91B08407009302F00403029372
:101C3000C2F3C20303F10103DDF868A00392054675
:101C40000E46059340F09D81041D00284AD101F005
:101C50000706341DC6F10806009B00275A1E4FF0E8
:101C600004084FF0FF3301930497B946BB4643463F
:101C70000DB1009921600598002800F3D7809048A5
:101C80000099814203D38F488142C0F0CF800399ED
:101C900011F0020CA4EB050040F0D680B9F10F0F53
:101CA00000F2CF80002D00F0D68009F140010DEB4D
:101CB000010EC0F3870001990EF8200C0EF8101CDD
:101CC000BCF1000F00F0C38060F07F000EF8200C24
:101CD000013709F10109C5F10801043406914FF6F5
:101CE000DA7E8CE00729B7D86FF01B0011B0BDE891
:101CF000F08F7A285BD84B280FD8472857D8292847
:101D00002ED8252850D052D8202818BF23280CBF01
:101D10004FF0010B4FF0000B71E04C382E2846D8E5
:101D2000DFE800F06D454545454545454545454598
:101D30004845454545454545455645484856565606
:101D40006D486A456D4518481845457F7C484545AE
:101D500048457C0000204FF0000B4FF0040835E0B0
:101D60002A38C0B2012101FA00F010EA0E0F46D164
:101D700010F0625C2CD110EA010B40D06046013CAF
:101D80004444B4FBF8F408FB04F425B1A3EB050CC0
:101D9000A444B445A8D8002870D00599013905910C
:101DA0005AF8041B009163E70199013901914FF042
:101DB000000B24E012F8010C6C2834D112F8023C1C
:101DC00000206C2B8346C8D14FF008084346D6E765
:101DD0000AF1070A2AF0070A0734FAE802BC24F0DD
:101DE000070435B106982044B0423FF67DAFC4E900
:101DF00000BC08344FF0000B4FF00808434612F8BF
:101E0000010F002853D0BBF1000F7FF472AF2528DB
:101E1000F5D1019B013301934FF0010B4FF0040802
:101E2000ECE7584697E700208346A8E70399880720
:101E30007FF551AF601B4FF0010CB0F5007FFFF450
:101E40002DAF6FF0150051E74FF0000CF5E7049847
:101E5000013004903DE7BCF1000F01D0013638E7B6
:101E60000298023600287FF434AF0098CDE906329C
:101E7000FEF7ECFADDE9063206442AE7042B08D126
:101E80000AF1040015B1DAF800102160043482462A
:101E9000B5E70AF1070323F0070303F1080A1DB1B0
:101EA000D3E90001C4E9000108340823A7E7631B54
:101EB000B3F5806FC5D23DB9A6F10804E01815E767
:101EC000349B0100ACCD0100029A28609B082B7066
:101ED0009DF81030AAB1EB70AF702FB108A80022A6
:101EE000C5F1010C91450ED1C5F101030DF120089A
:101EF0004FF0000A01930DF1300BD14512D1601B58
:101F0000F4E66B70E8E710F8013B190608D50CEB16
:101F1000040EB64503F07F033FF6E6AE04F8013B3E
:101F20000132DFE71FB198F90020002A17DB029B7E
:101F3000D3B11AF80B2004F8012B0022019B1819C9
:101F40001044B0423FF6D0AE98F8000004F8010B00
:101F500000990392204617F044FD039A14440AF1B5
:101F6000010A08F10108C8E798F8002055F8223066
:101F70000093029B45F822300098FEF767FA421C56
:101F8000DCE76FF00D00B1E62DE9F04F97B000AF40
:101F9000C7E90A3205468A4649B903784678807807
:101FA00000EB83002844564524D8A0EB050AD7F857
:101FB000803095F80280D7F8804003F00103FB6180
:101FC000EB787B62B8F1000F0CBF002404F0010431
:101FD0001BB1D7F880309A0715D4A4B9FB6A1BB19E
:101FE000BA6A514628469847564630465C37BD4641
:101FF000BDE8F08F441C2046FEF728FA013020444B
:102000000AF1010ACFE7D7F88030C3F3C0033B627F
:102010002B78BB619B003B616B687B61BB6905EB07
:10202000830BFB6A002B77D15646D844BCB11C46C3
:102030001BF8013B55F82300FEF708FAD7F8843067
:10204000013043B1D7F88830A34282BFD7F884303B
:1020500023F814000134C3450644E9D1D846D7F823
:10206000803013F0050F0CBF4FF0020B4FF0010B47
:102070004FF000097B6A9945B7D298F8013055F8BE
:1020800023A0AE4B9A4508F10208C0F04B81AC4B3F
:102090003A6A9A452CBF002301230AB318F8021CA0
:1020A0007869FB6213F0F8FCFB6AC8B1EA468AB0B3
:1020B0006A46A44B05937B69CDE906314FF4007362
:1020C000ADF82030A04B42F8103FA04800234FF459
:1020D000125100F0F1FC023ED54609F10109C9E7B1
:1020E00023B1FB6933B9A6EB0B06F6E7D7F88030CE
:1020F0009B07F2D55046FEF7A9F9D7F884304BB1CB
:10210000D7F888309C423FBFD7F88420431C22F880
:10211000143001340644E0E7002C69D1B8F1000F17
:102120006CD0D7F8803058076BD5C14607F148000E
:102130004246594617F055FC0BEB0803FB600022A2
:102140000233796A8A425ED3D7F8802095F801B0CD
:10215000F969920704EB0B03DBB254BF4FEA590253
:102160000022002940F0A680D7F8801011F0040F5B
:1021700014BF494600216B70A970EA703969BA6AC8
:10218000FB6A28469847061EFFF62FAFBB692B70E7
:102190007B6AEB704946BA6AFB6A85F801B085F83C
:1021A000028007F148009847B0F10009C0F2B680FC
:1021B0003B697A6A786A03EB4201FB68BA6A414478
:1021C00003EB4000AAEB0101FB6A98470028C0F22C
:1021D000A780B14409EB00064FF0000B07F1380A65
:1021E000A34569D30021BA6AFB6A08469847FCE612
:1021F000444607F138004FF0000999E74446C146CC
:102200009AE7A14698E713F8016CDFF830C155F85A
:10221000260013F8021C6045C0F08A80DFF820C158
:102220006045386A2CBF4FF0000B4FF0010B38B1FE
:102230007869C7E9013213F02FFCD7E90132F0B910
:10224000BBF1000F1ED0F96949B1611C04F12800EF
:1022500007F13004041904F8206CCCB20FE0D7F871
:10226000801049070BD509F1280007F1300C09F15E
:10227000010100EB0C0909F8106C5FFA81F90132D9
:1022800002335EE7D7F880008007DED409F1280C1E
:1022900007F1300EF44409F101000CF8101C07F1AD
:1022A000580151FA80F009F102095FFA89F900F842
:1022B000106CE4E700215EE71BF80A3087F837303E
:1022C00055F82390D7F884302BB3D7F888309B4546
:1022D00021D2D7F8843033F81B80BA6AFB6A012117
:1022E00007F13700984700281ADB0644B8F1000FC1
:1022F00006D14846FEF7AAF800F101081FFA88F84F
:10230000BA6AFB6A414648469847002808DB0644FB
:102310000BF1010B64E74FF00008DEE74E4664E680
:10232000064662E63B6A002B3FF4E0AE0023B5E6CA
:10233000386A0028A6D04FF0000B79E7349B0100E3
:10234000ACCD0100DCB1010004000001709F010070
:10235000014B1860704700BF6001002080B5054642
:102360000E461746984612F0B1F9034601F08CFA72
:10237000DFF81890044649F80030424630463946A6
:10238000A84754F8090001F019FA00BF080000003E
:102390002DE9F047858B0446280717460CD50129FF
:1023A0000CBF45F0100545F02005A58387F3118883
:1023B000BFF36F8FBDE8F087022905F0070540F0F5
:1023C0009480204613F029FE052864D801A353F811
:1023D00020F000BFAD230000EB2400009724000094
:1023E00059240000732400008524000001F0070335
:1023F0005A1F012A1FD8002221F00701062BD4F80A
:10240000008089B2C4E9002209D1434603E0E28B8F
:102410000132E2831B68002BF9D141F00201A18354
:10242000204613F0FAFD4FF0000900286DD041F06E
:102430002001A18369E0042B0AD121F0070189B2B0
:10244000A183204613F0E9FD10B141F02001A183E2
:102450004FF00008C14658E02369D3F80090A38BE1
:1024600023F0070343F00603A3834FF0000846461A
:102470004BE02369D3F80490A38B23F0070343F0C8
:102480000403F1E72369D3F80890A38B23F0070333
:1024900043F00503E8E74FF00008C146E7E70122F3
:1024A00043F00803A38387F31188BFF36F8F002ADB
:1024B0003BD1B8F1000F4AD1B9F1000F02D02D493C
:1024C0002046C847EFF31187202383F31288BFF318
:1024D0006F8FA38B23F008039BB2A383D9063FD54C
:1024E00023F01002A28303F00705A669A18B002E3A
:1024F000BFF67CAF0023D4F8008021F00701C4E9C7
:10250000003341F00101A1839946A38B03F0070A30
:10251000AA4502D0A268002AC1D1B8F1000F02D1A9
:10252000B9F1000FDAD00022BAE7A1680029C0D0C3
:102530000D680029BDD04F68334652462046B84743
:102540001DB12B6829461D46F3E72B46FAE74146A5
:10255000334652462046D8F8008013F08AFDA8E79B
:102560009A067FF523AF23F02002A28303F007052C
:1025700027E700BF9F6001002DE9F047DFF8548096
:10258000044607464FF0010994FAA4F5B5FA85F51B
:1025900009FA05F32E0108EB05156FEA030A24EA90
:1025A00003042B7B63B158F806301B696BB94644B2
:1025B000042273682846196807EA0A0713F07BFEAD
:1025C000002CE1D13846BDE8F0872846984700281E
:1025D000F6D1ECE750A0010010B50F490F4888B0C4
:1025E000002217F0DBF800220023CDE906230024A7
:1025F0000E23CDE90334CDE90144094B0949009488
:102600004FF44072084811F0E5FD0849064811F002
:102610005BFD204608B010BD312600007813002075
:1026200061290000407A0020B80E00209BB2010012
:10263000014811F063BB00BFB00500202DE9F04751
:10264000804621480F4613F016FE0646002833D078
:1026500000252846BDE8F087237B83B12368DB682B
:102660000BB120469847636883F8069023681B697E
:10267000D3B9636804221968204613F01CFE0136A2
:1026800010345445E8D3B8F1000FE2D0002DDFD06C
:102690002846FFF771FF0546002FF7D000214FF4C1
:1026A000A47016F087FFF1E7204698470028E0D095
:1026B00009FA06F31D43E2E7044CDFF814A00546CF
:1026C0004FF00109DDE700BFE833002050A0010012
:1026D00060A00100014B53F820007047F8A10100F1
:1026E00008B5034608462BB1044A136000F044FCC9
:1026F000002008BD6FF01500FBE700BF640100205B
:1027000010B5044C237813B9034811F0F7FA0123EC
:10271000237010BD55570020B005002010B50446A9
:102720000B4813F0A8FD5CB1BFF35B8F094B53E876
:10273000001F013943E80012002AF8D1BFF35B8F74
:10274000054812F00BFB0548BDE8104011F0D6BA61
:10275000E0330020E433002078130020B00500208F
:10276000064BBFF35B8F002253E8000F43E80021C4
:102770000029F9D1BFF35B8F704700BFE033002021
:1027800070B5FFF7EDFF084C084E0546B44200D384
:1027900070BD63685B792BB123685B6813B1294610
:1027A000204698471034F1E750A0010060A00100D6
:1027B00010B5044C0449204613F0A9FA034B1C60E1
:1027C00010BD00BF04050020E4A10100D8330020A3
:1027D0000D4A0E48002310B513700D4A13600D4AC0
:1027E0004FF400411360FFF77BFFFFF7E1FF0A4B57
:1027F0000A4918468B4200D310BD1A1A5C681211A0
:10280000013222711033F5E7565700207362010040
:10281000E0330020E433002050A0010060A001005C
:10282000014600220148002313F092BA040500205B
:10283000014813F029BB00BF04050020024B0146EC
:10284000186813F07CBB00BFD8330020014813F098
:10285000B1BB00BF0405002070B52A4B1B78002BCC
:102860004ED0FFF7E5FF0446002846D1264B274D02
:102870001B68002B19DD16F049FF4FF47A76A0FB98
:10288000063206FB0121D5E90020DB0B43EA414378
:102890009B1A4FEAD13140F2E93261EB00019342D9
:1028A00071F1000101D3FFF76BFFD5E9003213F599
:1028B0007A7342F10002C5E900320CB3BDE8704002
:1028C000FFF7C4BF6B685B7923B12B6821461B6897
:1028D000284698471035B542F4D32046FFF7AEFF9F
:1028E000BFF35B8F0A4B53E8001F013943E8001226
:1028F000002AF8D1BFF35B8FB8E7064D064EEAE732
:10290000002070BD55570020E033002070130020D8
:10291000E433002050A0010060A0010070B50D4D0F
:10292000297861B90120FFF789FE0B4C0B4EB442A8
:1029300006D3FFF791FF0028FBD101232B7070BD58
:1029400063685B791BB1236820469B689847103405
:10295000EDE700BF5657002050A0010060A0010025
:1029600000212DE9F8430846FFF768FE044648B306
:1029700040F267684FF0000900F086FF1A4B1B4ACF
:102980001B58136033B11A4B1B68092B02DD194821
:1029900011F0B4F9184F002544B12046FFF7ECFDC3
:1029A000044618B94FF0FF384FF0FF39FFF754FFD6
:1029B000064628B9B5B90F4842464B4611F0D8F93A
:1029C0003546E9E74FF0FF384FF0FF39D4E72B6881
:1029D0009B691BB100221146284698471035BD421D
:1029E000F5D3E8E7054DFAE708000000DC330020E6
:1029F000E4330020B005002060A0010050A00100D9
:102A000013B5184813F037FC174B1B7873B1EFF36D
:102A10001184202383F31288BFF36F8FFFF71CFF0D
:102A200084F31188BFF36F8F02B010BD0F4B1B688A
:102A3000002BF9D050B900220023CDE900230C4827
:102A40004FF40042002312F051F9EDE70928EBD1D1
:102A5000074812F083F9074802B0BDE8104011F0B2
:102A60004DB900BFE433002056570020DC3300206E
:102A700078130020B005002010B5064B1B680446F3
:102A800098472146A060044813F0DFF9BDE81040E4
:102A9000FFF7B6BF6401002004050020044A054B7F
:102AA0009B1AB1EBD30F34BF52F8310000207047AE
:102AB000289F010050A001002DE9F04F8FB004AF16
:102AC000C1F34A26B8600D4690467B600C0D002E7F
:102AD00061D04FF000090A234FF0040B07F1140AEC
:102AE000FE60C7E90799C7F824900093CDF808B0B5
:102AF000CDF804A007F11C03F9684A464046FFF7E9
:102B000043FAB0F5006F03461CD36C468AB0D8F880
:102B1000041004AB2448C3E9050140F2FF71D961F8
:102B20001A464FF400711984204B42F8103F204898
:102B30004B464FF41251FFF7BFFFA5462C37BD4659
:102B4000BDE8F08FC0F30A0604F11700184420F026
:102B5000070080083B60FFF763FE66F353250446D9
:102B600080B13B68134A00F11001C7E90839F961E7
:102B7000CDE901AB0A230093F96807F11C03404635
:102B8000FFF702FA66F353257B68B9682A462046A8
:102B900013F0B1FBD2E704F1170020F00700800822
:102BA000FFF73EFE0446EDE7B0B20100040000016D
:102BB000A89F0100C96201002DE9F04F87B0DDE94F
:102BC000127ADDE9106B0546884614469946BFB176
:102BD0001021CDF800A03B465A460020CDF814A0A5
:102BE000FFF71EF8B0F5006F01460BD3194A1A48DB
:102BF00040F2FF73022107B0BDE8F04F13F0D4BBE1
:102C00003946384604F0070305F00704E40044EAB7
:102C1000831444EA402444EA065406F117000844A9
:102C200020F0070080080391FFF7FAFD054640B148
:102C30003FB10399CDF800A03B465A461030FEF74D
:102C4000EFFF4B4622464146284607B0BDE8F04F0D
:102C500013F051BBEFB20100A89F0100406820B102
:102C6000034BC01A40F3CF0070474FF0FF3070475E
:102C7000289F01000EB403B503AB014653F8042BA3
:102C80000448019300F088FF02B05DF804EB03B044
:102C9000704700BF0B640100CA0605D48B064CBF09
:102CA00002490349FFF7E6BF704700BF28B30100A0
:102CB00027B301002DE9F04F89B09846159B069384
:102CC000DDE916A39DF85090189F059204460D4625
:102CD0000493B9F1000F00F0B08007F480730793FC
:102CE00013F0E7FA07F0020B0246002874D0784987
:102CF0002046FFF7BFFF0646BBF1000F08D017F0D4
:102D0000440F6BD173492A462046FFF7B3FF0644B0
:102D100007F0010353B1704B704953F82920704BF1
:102D20002046002A08BF1A46FFF7A4FF07F4807365
:102D3000002B07F0080318BF4FF00008002B79D0D4
:102D4000684B694953F829202046FFF793FF054651
:102D5000059B2BB165491A462046FFF78BFF0544BA
:102D6000B8F1000F05D0624942462046FFF782FFC6
:102D7000054460483544069B1BB15F49224612F06A
:102D80005AFE049B002B00F08E80DDF8108039463F
:102D9000B8F1100F204628BF4FF01008FFF77CFF56
:102DA0000026B54250DC002633461AF8032053496A
:102DB0002046FFF75FFF0136102E4BD0710703D17D
:102DC0004F492046FFF756FF46453346EDD34D4960
:102DD0002046FFF74FFFEEE706468DE74A4B18689F
:102DE000002894D0494B4FF47A7B1B68B5FBF3F570
:102DF0004FF46163B5FBF0F100FB11550BFB05F5DA
:102E00004FF03C0CB1FBF3F203FB1211B5FBF0FEEB
:102E1000B1FBFCF300FB1E550CFB13110BFB05F57E
:102E20000091B5FBF0F53A49CDE901E52046FFF701
:102E300021FF6CE707F008058AE7B8F1010F0CBF26
:102E40002C4834484D4696E72D492046FFF712FF9F
:102E50000136A6E7304920460026FFF70BFF334630
:102E60001AF803202D49A2F120035F2B28BF2E2240
:102E70002046FFF7FFFE0136102E0DD0720703D15A
:102E80001F492046FFF7F6FEB0453346E8D81C49F7
:102E90002046FFF7EFFEEEE7049BB3EB0803C244C6
:102EA00004937FF472AFB9F1000F0AD0FB0704D589
:102EB0000B4A0A492046FFF7DDFE39462046FFF758
:102EC000EBFE204609B0BDE8F04F13F091BA00BF09
:102ED0002FB3010033B3010008A2010076B801004E
:102EE0002AB301001CA2010058B301005EB3010027
:102EF00062B301000B640100993B000067B301005D
:102F00006FB301006DB30100F0330020EC330020FB
:102F10003CB301004164010071B3010073B30100CF
:102F200073B542F20F738B4228BF0B4605680F4AF8
:102F300004460521684612F03BF863680C495B685B
:102F400006460B22284613F045FA63683246694666
:102F500028465B6813F03EFA636806495B681B22EB
:102F6000284613F037FA02B070BD00BF11BC010053
:102F7000A8C901008CC90100074A00210123904221
:102F800006D8064A01B901231360054B1860704743
:102F900040085B000121F2E740420F00EC330020C3
:102FA000F0330020F8B5074F0D4604464618B442EA
:102FB00001D12846F8BD14F8011BBB6801485B68C5
:102FC0009847F4E7449C0100014B036000207047E0
:102FD00064A2010008B50348034A0021121A13F045
:102FE000ACFA08BDB8060020205900200748084A5E
:102FF000084908B5121A13F0A2FA0748074A084907
:10300000BDE80840121A13F09ABA00BF0000002071
:10301000B8060020ACCD0100000000200000002018
:10302000ACCD01002DE9F047064600AF0C46002963
:1030300036D0E9468AB0D1E90012A3686D4621482E
:10304000E8464FF0050ACDE90501CDE9072348F828
:1030500010AF1D48424600234FF42151FFF72CFDCD
:10306000CD46D4E903126369AD461848C5F810A0EF
:10307000C5E90501C5E907231348002342464FF47B
:103080002151FFF719FDCD46E369114A0E48012190
:1030900013F08AF9A3690F4A0B48012113F084F950
:1030A000012E07D1EFF305830B4A0748103B314649
:1030B00013F07AF92146304610F0AAFABD46BDE871
:1030C000F08700BFB0B30100E09F0100DFB3010053
:1030D0000EB401001DB401004BB4010030BFFFF776
:1030E000FDBF00BF2DE9F0410B4EDFF8308006EB4D
:1030F0000807CC1B054632460949204616F071FCEC
:10310000A01942460021083C16F079FCC5F8A840F9
:1031100007F10800BDE8F081000000000400000095
:1031200060A0010010B5204C2049214813F019FA85
:10313000A36A990136D51E481E4913F012FA1E20C3
:10314000A36ADA0104D51A481B4913F00AFA1F20B2
:10315000154CA36A1B0304D51548184913F001FA4E
:103160002120A36A590304D51148154913F0F9F930
:1031700022200D4CA36A9A0304D50D48114913F07F
:10318000F0F92320A36ADB0304D509480E4913F0A4
:10319000E8F92420044A936A6FEA03436FEA134371
:1031A000936210BD1D20CBE700ED00E05EB401008E
:1031B000E09F010076B4010089B40100A3B40100CE
:1031C000C1B40100E6B4010000B5010070B50646C7
:1031D0000D46284C2849294813F0C3F9A36AD9049D
:1031E0003CD52648264913F0BCF91720A36A1A05D6
:1031F00004D52248234913F0B4F918201D4CA36AC2
:103200009B0512D51D48204913F0ABF9A36BA26AA8
:10321000100409D51D4A1948012113F0C5F81EB143
:10322000A36A23F40043A3621920124CA36A590530
:1032300004D51248164913F094F91A20A36ADA0546
:103240000ED50E48134913F08CF91B20094A936AD6
:1032500043F47F43936200232B7070BD1620C5E7B3
:10326000A36A9B04F2D505480B4913F07AF91C2098
:10327000ECE700BF00ED00E02BB50100E09F01008E
:1032800041B5010052B5010065B501007EB50100F0
:1032900093B50100AEB50100C6B501002DE9F843B4
:1032A000804689461746354D3549364813F059F959
:1032B000AB6ADE0627D53449324813F052F911249F
:1032C000AB6A1D0704D531492E4813F04AF9122480
:1032D0002A4DAB6A980718D52D492A4813F041F9B1
:1032E0006E6BAB6A190646D52A4A26483346012139
:1032F00013F05AF8B9F1000F03D0AB6A23F0800342
:10330000AB62132403E01024DAE76FF015061B4DBF
:10331000AB6ADA0704D520491A4813F022F91424BD
:10332000AB6A9B0604D51D49164813F01AF91524FB
:10333000124B9A6AD50602D49A6A90070AD55B683E
:10334000190507D54146304600F0EAF910B180F37F
:1033500009880224094B9A6A920642BF5A6A22F4EB
:1033600000525A629A6A42F0FF029A6200233B704E
:103370002046BDE8F8836FF01506C2E700ED00E0D7
:10338000F5B50100E09F01000BB6010052B5010048
:103390003EB6010056B601006CB60100C6B501008C
:1033A0002DE9F041684B8AB0D3F8048000AF0446A1
:1033B000C8F30806002585F31188BFF36F8F02F06C
:1033C0007F43B3F17F4F07D102F00C03082B12D1DA
:1033D0005E495F4813F0C5F800252C460023FB71B9
:1033E000F31E092B00F28F80DFE803F00A85888145
:1033F0008D8D8D8D8D8B10074CBF0C460125EDE713
:1034000054495348504E13F0ACF80023FB71F36A53
:103410009A0705D550494E4813F0A3F800232DE034
:10342000F36A002B01DA4D49F5E7F36A5B00F5D545
:103430004B49474813F095F87369A26943F48073C8
:103440007361BFF34F8FBFF36F8F32F8023C726925
:1034500022F480727261BFF34F8FBFF36F8F03F45A
:103460007F42B2F55F4F2BD1DBB2022B28D123680C
:103470003C4A3748012112F097FF2368FA79DAB9FC
:1034800007F1080604F1200C20686168324603C287
:10349000083464451646F7D17A6A002D50D0C2F33D
:1034A000080121B96FEA52226FEA42227A6207F1DB
:1034B00008011846FFF7B6FD2837BD46BDE8F08184
:1034C000214B9A6AD2B22AB1FA1D01212046FFF798
:1034D000E5FE0EE09A6A12F47F4F04D0F91D012038
:1034E000FFF774FE05E09B6AB3F5803F96D3FFF7C4
:1034F00019FE0346C2E7FA1D0021E7E7F91D002087
:10350000EEE7194987E7194A194B18F4F87FE8469E
:103510008AB008BF13466A461649CDE905134FF431
:103520000073ADF82030103E134B079642F8103F61
:10353000074800234FF41151FFF7BEFAC5466DE767
:103540006FF30802B2E700BF00ED00E0B9B601007A
:10355000E09F0100E4B60100FBB601001CB70100CA
:103560002AB7010049B7010065B701008BB6010019
:10357000A0B6010089B7010004000001044B5A699C
:1035800042F010025A615A6922F008025A617047EB
:1035900000ED00E0EFF30880EFF3098101B572461A
:1035A000FFF7FEFE01BD00BF0B4880F308880FF057
:1035B000D9F8202080F3118808484FF4046140189E
:1035C00080F30988EFF314800221084380F3148804
:1035D000BFF36F8F00F06CF8409A0020808C0020C1
:1035E0001EF0040F0CBFEFF30880EFF30980816930
:1035F00011F8021C0229FFD001B5724612F0A1FF9A
:1036000001BD00BF40B2002807DB044A4109012385
:1036100000F01F00834042F82130704700E100E0D5
:1036200040B200280CDB4309064900F01F0020339C
:103630000122824041F82320BFF34F8FBFF36F8FE9
:10364000704700BF00E100E0054B420900F01F0099
:1036500053F82220012303FA00F01040704700BF06
:1036600000E100E040B20028A8BF00F1604001F195
:103670000101B8BF064B4FEA4111ACBF00F56140F4
:1036800000F00F00C9B2B4BF195480F8001370479E
:1036900014ED00E0044B054A23F07F039360BFF371
:1036A0004F8FBFF36F8F70470000000000ED00E008
:1036B00008B5FFF7EFFF0B4AD2F8883023F4700308
:1036C000C2F88830EFF3148323F0040383F31488E3
:1036D000BFF36F8FFFF77EFCFFF788FC00F0B6F8B2
:1036E00010F0CEF800ED00E042F8203C009B42F8DC
:1036F0001C3C0A49019B42F8183C029B42F8143CCE
:1037000021F001014FF0807342F8043C42F8081C9C
:103710000023203A0265C0F8AC3070475D230000FA
:103720000A4A0346906878B113F1160FD0F8980052
:1037300005D0A0F14002934205D3834203D28142D7
:1037400028BF002070470020704700BF10510020A4
:1037500008B515460C4A0D4B9060D0F8A8201A60A9
:103760000E4600F0A3F82C4686F309880020044B8F
:1037700098472046002100220023024C20470000E9
:10378000796501005D2300001051002020340020E5
:10379000014B10221A61704700ED00E0054B5A6999
:1037A0009B689A421FBF044A536843F0805353609A
:1037B000704700BF1051002000ED00E0084B9B68EF
:1037C00083420BD1EFF3058343B1064B5A6842F0B5
:1037D00080525A605A6A22F400425A6210F07CBF4A
:1037E0001051002000ED00E015498A684FF03000CC
:1037F0001044EFF3098C80E8F01F202080F312883A
:10380000BFF36F8F0F4F4FF000664A698A603E60CA
:10381000D2F8A8000C4C2060D2F8AC000023C2F80B
:10382000AC3080F3118804B5104600F03FF8BDE8D5
:10383000044002F1300090E8F01F8CF309887047D3
:103840001051002004ED00E0203400200448002343
:103850002021C2180133302B82F80013F9D17047B0
:1038600000E100E008B5EFF30583064A103B02EBE8
:10387000C30152F8330049688847BDE80840FFF7A4
:103880008DBF00BFEC9C010001480068704700003C
:1038900020340020024B034A0348012100F08CB879
:1038A000000004200000002064A20100D0F898303D
:1038B000054A403B1360054B4021C2E90113104605
:1038C000012100F083B800BF2434002000000B1554
:1038D00008B503461048D0F89020C2F30722013AF9
:1038E000934207D90D480E4A012112F05DFD6FF099
:1038F000150008BDC0F898300A6822F01F021A436C
:1039000042F01002C0F89C208A6842F00102C0F820
:10391000A0201846EDE700BF00ED00E0C89F0100C1
:10392000A0B70100F0B50E4685B01F46044600253D
:10393000B5420DDA606810B397B1431E18420AD041
:10394000104A11482B46012112F02EFD6FF015028E
:10395000104605B0F0BD1F28F2D921680B42EFD107
:103960002368019312F02BFEA36801A90343D0B290
:103970000393FFF7ADFF10F1160FE7D0421C01359E
:103980000C34D5E7C6B70100C89F0100044B0522DF
:10399000C3F89420BFF34F8FBFF36F8F704700BF02
:1039A00000ED00E0BFF35F8F024B0022C3F89420CC
:1039B000704700BF00ED00E010B5034C01232278F2
:1039C000FFF7B0FF207010BD5857002008B50B4A14
:1039D00000231278FFF7A6FF10F1160F07D0084A50
:1039E0000021D2F89030C3F30723984200DB08BDD2
:1039F000C2F89800C2F8A0100130F2E75857002032
:103A000000ED00E02DE9F0435D485E49D0F89030CC
:103A10000C68C3F307239C4285B000F2AE80FFF729
:103A2000C1FF49680022944201F10C011AD1564F9E
:103A3000564D3C706846FFF7C7FA554C554E8146C7
:103A40004FF00008C14520D13B784D490020D1F806
:103A50009020C2F307229342C0F28980FFF796FFBD
:103A6000002050E0C0F8982051F80C3C23F01F03D0
:103A7000134343F01003C0F89C3051F8043C43F06A
:103A80000103C0F8A0300132CDE7009800EB081127
:103A90004FEA081CCB682340B3F5000F49D00BD880
:103AA000B3F5001F32D0B3F5800F37D0B3F5801FC8
:103AB00014D008F10108C5E7B3F1007F42D0B3F19B
:103AC000805F48D0B3F1807FF3D150F80C30886824
:103AD0004A6812F074FD40F0887009E050F80C302C
:103AE00088684A6812F06BFD40F0885040F430203E
:103AF000039001A93878CDE90123FFF7E9FE0028FA
:103B000031DA6FF0150005B0BDE8F08350F80C30E5
:103B100088684A6812F053FD3043E9E750F80C30EA
:103B200088684A6812F04BFD40F0C06040F40030F5
:103B3000DEE750F80C3088684A6812F040FD40F02B
:103B40008270D5E750F80C3088684A6812F037FD6B
:103B500040F48020CCE750F80C3088684A6812F0B6
:103B60002EFD2843C4E73B7801333B70A1E7C1F841
:103B70009830C1F8A000013369E74FF0FF30C2E789
:103B800000ED00E070A20100585700200000021173
:103B90000000F0FF00000811F0B587B007460E46A0
:103BA00014460021102268461D4615F028FF022306
:103BB0008DF802302A46054B019321466846CDE92F
:103BC000047611F01FFA07B0F0BD00BFDF650100F9
:103BD00008B5024B1B689847002008BD3034002010
:103BE000034B044A1860937843F0020393707047C4
:103BF000303400207001002008B50649064821F045
:103C00000701C1F1005202F5802211F0D3FE00201D
:103C100008BD00BFF7A800203434002003484FF04F
:103C2000FF324FF0FF330FF075BF00BF800100205F
:103C300001480FF0E1BF00BF8001002010B504462D
:103C4000FFF7ECFF21460348FDF766FFBDE8104093
:103C5000FFF7EEBF3434002070B54169867A0B4D12
:103C6000044659B1437ADB0706D4302303FB0653DD
:103C70009B6A1B689B68984700236361302021463C
:103C800000FB0650BDE8704015F06ABBF805002047
:103C9000024B302202FB0030704700BFF8050020C5
:103CA000827A074B302101FB0233DA6A93F8223023
:103CB0001B33801A23F00303B0FBF3F0704700BFFF
:103CC000F805002038B5074B827A302404FB023314
:103CD0009B6AD3E901240C601568FFF7E1FF04FB40
:103CE000005038BDF80500202DE9F04385B00546A9
:103CF0006846039190461C4615F00AFDDDE9006711
:103D0000EFF31189202383F31288BFF36F8F2B8C7D
:103D1000002B43D0EA8B9A4225D900220023284663
:103D20000FF0BAFF0446F0B189F31188BFF36F8F2B
:103D3000039B002B43D032463B46684615F00DFDF1
:103D4000A27A274B302101FB023320469B6A1B6875
:103D500003A91D68DDE90023A847606180BB2046F8
:103D6000FFF77AFF26E0298C4B1E2B8489F31188FC
:103D7000BFF36F8F95F82230EA8BEC6A1B3323F088
:103D80000303521A02FB0344154B164AEB1A1B118C
:103D90005343A37295F82230E372C9E789F311887F
:103DA000BFF36F8F2346424628460FF075FF044647
:103DB0000028BDD10024204605B0BDE8F083636132
:103DC000012300252381039B6382E27A65602946F3
:103DD00004F1180015F013FE63692582E360EAE739
:103DE000F8050020ABAAAAAA70B50D4C302500B981
:103DF00070BD037A4668002BFAD0013BDBB2037238
:103E0000002BF5D1C3604360837A05FB03435B6AF3
:103E100013B198473046EAE7FFF71EFFFAE700BF05
:103E2000F80500200C4B0122C3F840254FF08043D9
:103E30004FF08051C3F87825D1F83001082805D11A
:103E4000D1F83411022908BFC3F838260122C3F87B
:103E500080250020704700BF00E0014048B1054BBD
:103E6000054A1B68B3FBF2F35843044B43F00103CC
:103E700018477047BC04002040420F00C0A001005A
:103E800008B5054A054B136010463C2353600EF0FD
:103E90003FFD002008BD00BF403400203FC00F00A0
:103EA000024B1B6803B11847FF20704750340020B5
:103EB0000A4B0B4A0020C3E900000A4B1A600A4A69
:103EC0005A600A4A9A600A4ADA600A4B0A4A9860BB
:103ED000C3E90020094ADA60704700BF743400204B
:103EE0003540000064340020613F00009D40000028
:103EF0000767010054340020A13E0000096701005B
:103F000030B50E4C8BB02D23054668468DF8003039
:103F100004F074FA9DF904302278934200D15DB127
:103F2000D8B2074B20701B6803B198472378054A25
:103F30000548032112F038FA0BB030BD5B57002062
:103F40004C34002016B80100C09F0100034BBFF3A2
:103F50005B8F1868BFF35B8F704700BF7C34002015
:103F60002DE9F04383B0427802AF0446C2B1104657
:103F700000F0DAF96C4688B002AA294BC2E9053094
:103F80004FF400739383274B42F8103F26484FF4B9
:103F9000E25112F0BBFBA5460437BD46BDE8F083F5
:103FA000FFF7D4FFC00702D51046FFF7A9FFFFF7C0
:103FB000CDFF81070ED4237F63B1BFF35B8F1B4B13
:103FC00053E8001F41F0020143E80012002AF7D134
:103FD000BFF35B8F6179237F4A1E5142514141EA11
:103FE0004301134B1D685FFA81F8002DD4D0083DC2
:103FF0004FF6FF792B88E0784B4501D083420AD1F8
:10400000A16894F91030B4F90E200191217B009140
:104010006E684146B047AD68002DBDD0083DE9E768
:104020002EB8010003000001C09F01007C34002075
:1040300074340020B0B50446407800AFA0B100F061
:1040400073F96D4688B06A460F4BCDE905304FF4E1
:104050000073ADF81C300D4B42F8103F0C484FF484
:10406000E25112F053FBAD46FFF770FFC30702D5D4
:104070000020FFF745FF074B62781A7006480FF0E3
:104080003DFEBD46B0BD00BF49B8010003000001C0
:10409000C09F01005A570020C8050020B0B58AB063
:1040A0000446407800AFE8B100F03EF96D4688B0B4
:1040B0006A461D4BCDE905304FF40073ADF81C3056
:1040C0001A4B42F8103F1A484FF4E25112F01EFB0F
:1040D000AD46184B62781A7017480FF00FFE28375C
:1040E000BD46B0BD2378052B0FD0092B19D0012B6D
:1040F000EFD1072338463B7004F080F97B680F4A04
:104100000B48032112F050F9E3E70D4B1B6813B184
:10411000617A207A98470B4A0548032112F03BF94F
:10412000D7E7094AF8E700BF61B8010003000001C2
:10413000C09F010059570020E005002079B8010018
:104140004834002097B80100A7B801002DE9F041DC
:1041500086B0804600AF15461C460E4609B9002AB7
:104160006DD138484FF0FF324FF0FF330FF0D2FCE3
:104170003946284604F0E0F8002840D000F0C8F89E
:104180006C4688B06A46304BCDE905304FF4007379
:10419000ADF81C302D4B42F8103F2D484FF4E25142
:1041A00012F0B4FA0023A54601253B71FB603B8267
:1041B000381DBB7405F000FC044670B300F0A8F88D
:1041C0006D4688B06A46234BCDE905304FF4007345
:1041D000ADF81C301D4B42F8103F1D484FF4E25122
:1041E00012F094FA2046AD4600F0AAF804461548AD
:1041F0000FF002FD20461837BD46BDE8F08154B1EE
:10420000012C08D0144B3D8293F9003087F80880C8
:10421000FE600025CCE73C71F4E74FF0FF330F4818
:104220004FF0FF320FF0A4FD0D4B187808B100F0ED
:1042300099F8002D044618BF6FF00A04D7E76FF015
:104240001504D7E788050020B7B801000300000176
:10425000C09F0100DCB801005B570020C8050020AA
:104260005A570020B0B5214D214922488EB02A78F6
:1042700000AF03F097FEC0B100F04AF86C4688B07A
:104280006A461D4BC2E905304FF4007393831B4B04
:104290001B4842F8103F4FF4E25112F037FA6FF02A
:1042A0001500A5463837BD46B0BD04F03BF80446BE
:1042B00030B100F02DF86C4688B06A46114BE1E74A
:1042C000062307F1080128783B7213F0B1F90E4B71
:1042D000C0B218700D4B187030233B7407F11000FA
:1042E00014237B6104F0A2F92046DBE7D804002008
:1042F0005434002064340020F4B8010003000001AD
:10430000C09F010015B901005C5700205B570020D9
:1043100017289ABF024B53F820000248704700BF8D
:1043200078A3010043B901000F289ABF024B53F84C
:1043300020000248704700BF38A3010053B90100B4
:104340001628034608D8064A52F8200030B9002B38
:1043500018BF6FF0150070476FF01500704700BF71
:10436000DCA201000F28034608D8064A52F82000B4
:1043700030B9002B18BF6FF0150070476FF01500B3
:10438000704700BF9CA2010001480FF057BE00BF5C
:1043900024020020014B18605960704780340020CF
:1043A000024B1A685B6802600B6070478034002023
:1043B00008B512F0C0F9024B1B68C01A08BD00BF57
:1043C00088340020014810F0C9BC00BF500500200F
:1043D00007B5014640F2E7304FF47A72002300EB54
:1043E000C130490CFCF710F802460B4600210020B2
:1043F000CDE90001024810F079FC03B05DF804FB40
:104400005005002008B512F096F9014B186008BD60
:1044100088340020014B1868704700BF88340020A2
:1044200010B5124CBFF35B8F022354E8002F012A12
:1044300003D144E800310029F7D1BFF35B8F0CBFF3
:104440000120002010D10A4BDB6A9847002344F872
:10445000443CBFF35B8F54E8002F44E8003100294F
:10446000F9D1BFF35B8F012010BD00BFD434002011
:10447000D8A3010010B5064B5C68FFF7D1FF30B13F
:104480002CB100212046BDE8104010F01FBD10BD2A
:104490008C34002013B50D4B9A683AB10C4B5B6B12
:1044A0000193002002B0BDE8104018475C68FFF798
:1044B000B7FF40B13CB16FF00401204602B0BDE847
:1044C000104010F003BD02B010BD00BF8C340020BE
:1044D000D8A301002DE9F347284C9A46A368074664
:1044E0000D46164683B1264B00205B6B9847E36868
:1044F000CDE900A32A46D4F808802068334639461F
:10450000C04702B0BDE8F08704F148020223D4F8A6
:104510000490BFF35B8F52E8001F012903D142E8EA
:1045200000300028F7D1BFF35B8F9046E9D1236DAF
:104530001A78AA4288BF1D70236DE06C1A7839463C
:1045400015F04FFA636D03B11E80A36D0BB183F8B4
:1045500000A00B4BDB6A984700216160BFF35B8FC3
:1045600058E8003F48E80012002AF9D1BFF35B8FFA
:10457000484602B0BDE8F04710F0A8BC8C340020DB
:10458000D8A30100F8B5044600AF00680D4614F04A
:1045900099FD26680346C0B96C4688B031686A4602
:1045A0002948CDE905014FF40071ADF81C102749E9
:1045B00042F8101F26484FF4E251FEF77DFA6FF0E3
:1045C0001205A5462846BD46F8BDE38821792B4350
:1045D000DA02D6F808E0D6F810C007D513F4402F59
:1045E0001EBF43F3000202F440225340DCF80050A7
:1045F0000120884023F48012DB074CBF284325EAC2
:104600000000CCF80000DEF8003030469847054640
:104610000028D7D02368196823796C468AB06A4687
:104620000C48CDE907354FF40073ADF824300A4B40
:10463000CDE9050142F8103F054800234FF4315100
:10464000FEF73AFAA546BDE7DBBB01000300000117
:1046500030A00100F4BB0100050000011FB5104AA5
:10466000138FFA2B084619D0A3F5FA714B424B4130
:10467000590092F842300B4C83F001030393C0B20F
:10468000002302900193938F009392F83B30646A69
:1046900092F83A200120A04704B010BD0121E8E7BC
:1046A0008C340020D8A3010070B50D460F49BFF32C
:1046B0005B8F012451E8000F002803D141E8004638
:1046C000002EF7D1BFF35B8F0DD1094E41F8443C6A
:1046D000D4B2736D2146012098472846B36A21461B
:1046E0009847002070BD6FF00F00FBE7D434002026
:1046F000D8A301002DE9F0418AB001AC06468846F6
:1047000017460021102205A8CDE90144CDE9031187
:10471000012515F074F9214B8DF821505B6B09943C
:10472000ABB323463A4641463046FFF7BDFF044649
:1047300080BB39463046FFF791FF214600FA05F667
:104740004FF4004440F2E7304FF47A720023E6FB66
:104750000401FBF759FE02460B46294605A810F056
:104760005DFB041E0FDA0E4A0E48294611F013FEB7
:10477000FFF756FE38B94FF0FF324FF0FF332946AE
:1047800005A810F04BFB20460AB0BDE8F0816FF0A1
:104790001504F8E76FF00F04F5E700BF8C34002034
:1047A00014BC010030A00100F0B58DB000248DF8DC
:1047B000072003AE0F461022214607A8CDE9036665
:1047C000CDE90544012515F01AF9274B8DF829503C
:1047D0000B96BFF35B8F53E8002FA24203D143E84F
:1047E00000510029F7D1BFF35B8F39D10DF10702DA
:1047F00043E911649A601D4E149ADA60159A1A61A1
:104800005F60FF21736D28469847736B2046984779
:10481000DDE91223294607A810F000FB041E15DA73
:10482000FFF7FEFD50B94FF0FF324FF0FF3329463E
:1048300007A810F0F3FA9DF8074004E00C4A0D4871
:10484000032111F0A8FD20460DB0F0BD069B002B02
:10485000F1DA094A0748294611F09DFD069CF2E766
:104860006FF00F04EFE700BFD4340020D8A301009D
:1048700030BC010030A0010040BC010010B529B9D6
:10488000FFF7CEFDE0B96FF0150010BD0F4BBFF381
:104890005B8F012453E8000F002804D143E8004C4B
:1048A000BCF1000FF6D1BFF35B8F0BD1084C43E98D
:1048B00010120120636DFF219847636B0020984719
:1048C0000020E2E76FF00F00DFE700BFD4340020E4
:1048D000D8A301002DE9F0438B8891F80E80FA2BC4
:1048E0008BB00C4688F001080ED0B3F5FA7F4ED09D
:1048F0007D2B4ED03448354A012111F055FD6FF023
:1049000015000BB0BDE8F0830127314DBFF35B8F7D
:104910004FF0010955E8003F002B03D145E8009214
:10492000002AF7D1BFF35B8F4AD12A4E2068F36883
:104930009847E37A7BB32246A5F1140304F1100CE7
:10494000106851681D4603C5083262452B46F7D1F1
:10495000106828604FF47A6308930022237B079342
:10496000CDE90522CDE9032823890293E379019358
:10497000A3790093F56994F90A103B460120A847F2
:10498000B36D607B9847FFF74BFD0020B9E7022726
:10499000BBE70027B9E7CDF82490227BB569CDE9C4
:1049A0000732CDE90583CDE903330A220292228939
:1049B000CDE900323946E379A2794846A847DFE7D6
:1049C0006FF00F009DE700BF30A001004EBC01005A
:1049D000D4340020D8A3010038B5084611461A4641
:1049E0000B4BBFF35B8F012453E8005F002D04D114
:1049F00043E8004CBCF1000FF6D1BFF35B8F04D14C
:104A0000044BDB6B9847002038BD6FF00F00FBE7CD
:104A1000D4340020D8A3010010B5114BBFF35B8F35
:104A2000002453E8002F43E800410029F9D1BFF3E7
:104A30005B8F0C4943F8381C0B490C4C43F8301C75
:104A40000B4943F8281C0B4943F8341C226843F8EF
:104A5000480CA3F138009047E36A9847002010BD46
:104A6000D434002075440000D5440000D8A30100D0
:104A700095440000C5670100034BC01A0011034BA9
:104A800053F82030002018470C3500203802002051
:104A90000A4B834211D192FAA2F3B3FA83F362B1C3
:104AA000032B06D106480FF0C9BA052B05D10548DE
:104AB000F9E7042BF9D10448F5E77047F09B0100B2
:104AC0000C3500202C3500201C3500200346024AFE
:104AD0000248012111F068BC76BC010028A0010049
:104AE000084B1A691268120548BF80F0010028B10E
:104AF0009B68DB6803484FF4006118479B681B699B
:104B0000F8E700BFF09B01000346024A024801217A
:104B100011F04ABC93BC010028A001002DE9F04F20
:104B2000464C474E83B0814600AF002559F82530EA
:104B3000002B79D0206814F0C5FA0346D0B93F4A5B
:104B400052F835206C4688B011686A463D48CDE978
:104B500005014FF40071ADF81C103B4942F8101FDD
:104B60003A484FF4E251FDF7A7FFA5460C37BD4682
:104B7000BDE8F08F364B374903EB051014F01CFCF1
:104B8000B4F806802068217948F48032D0F810E02B
:104B9000D0F808A0DEF800304FF0010C0CFA01FC50
:104BA00018F0010F14BF43EA0C0323EA0C03CEF8FC
:104BB0000030DAF80030984794F804B02649D4F869
:104BC0000080012202FA0BF3C6E90113D8F808109D
:104BD000D1F81CA0BAF1000F05D1204A1B480121D1
:104BE00011F0D9FBC2E7314640467B60D047002830
:104BF000F3DBE28802F04002D8F80800D8F8101081
:104C0000D0F818A0BAF1000F0ED009687B680B42EB
:104C1000134B0CBF42F0B86282F0707213405946D9
:104C20004FF0A0724046D0470135032D04F108042F
:104C300006F10C067FF47AAF98E700BF6CA4010080
:104C4000E8340020B1BC01000300000128A00100ED
:104C50000C350020794A0000914A0000C8BC0100D0
:104C60004000000610B58AB00DF10703069301233A
:104C7000CDE907310992022306AACDE903328DF866
:104C800007000292059304480449836802AA1C683D
:104C900004ABA0470AB010BDB49C010048A40100B9
:104CA00013B50446002140F6CD4014F083FC0020EB
:104CB000FFF716FF002140F6CD4014F07BFC0122E7
:104CC0000DF107014220FFF7CDFF002809DA0F4A56
:104CD0000F48012111F05FFB6FF00404204602B081
:104CE00010BD9DF807300B4A0948032111F05CFB09
:104CF0002046FFF791FE041E05DA074A0448012109
:104D000011F049FBEAE70024E8E700BFE5BC010039
:104D100028A0010001BD01001DBD010010B5044621
:104D20000D4814F0CFF970B10C4814F0CBF950B124
:104D30000B484FF4D011FFF725FC58B92046BDE8C9
:104D40001040FFF7ADBF0748074A012111F023FBD0
:104D50006FF0120010BD00BFB49C0100F09B010079
:104D600064A4010028A0010040BD010010B588B076
:104D70000DF1070304930123CDE9053104AB60F085
:104D80007F00029302238DF80700079203930448E3
:104D90000449836802AA1C680023A04708B010BD1C
:104DA000B49C010048A4010013B50023044601226D
:104DB0000DF107014D208DF806308DF80730FFF713
:104DC00051FF002806DA1D4A1D48012111F0E3FABF
:104DD00002B010BD9DF8073023F0070343F0040331
:104DE0000F2C6FF003028DF807302346A8BF0F2366
:104DF0009342B8BF1346DBB2002C9DF80620D5BF06
:104E000004331343134343F07003D8BFDBB20122D2
:104E10000DF1060109208DF80630FFF7A7FF0028E5
:104E200001DA084AD0E701220DF107014D20FFF712
:104E30009DFF0028CCDA044AC6E700BF55BD01003B
:104E400028A001006BBD010085BD010013B5094814
:104E50000469836801A95B68984720B923680198B1
:104E60005840C0F300100028D4BF0020012002B039
:104E700010BD00BFF09B0100074B08491A6843F2C0
:104E8000390001FB020018606FF00043B0FBF3F340
:104E9000C3EBC373C01A7047340200206D4EC64185
:104EA000014B1860704700BF3402002030B530B1AC
:104EB0000A4D01444FF0FF33884201D1D84330BD41
:104EC00010F8012B5340082243F30004013A2C4010
:104ED00092B284EA5303002AF6D1EDE72083B8EDBD
:104EE000044A13680BB1002159724361106011F03C
:104EF0004DBD00BF3C35002037B5044601A811F078
:104F000052FC6CB1154D2A68134673B9636823606F
:104F1000012323816AB9FFF775FA2046FFF7E0FF06
:104F200001A811F049FC03B030BD9C42F8D05B6988
:104F3000EBE7FFF73DFA23682A68184420601368FE
:104F40009842EAD3536913B954616361E8E7196879
:104F50008842F9D91A465B69F5E700BF3C35002065
:104F6000F8B5FFF757FA1C4C0546FFF74BFA2368D4
:104F7000A3B1471B1E462D1A716929B95A692260CF
:104F8000DA68197242B9FEE70A68BA428CBF521950
:104F900000220A607669EFE71869904700262368C7
:104FA0002BB9206880B9F8BD18699047F7E71D68EC
:104FB000FFF7FEF985422368F3D25A692260DA6866
:104FC0001E72002AF0D1FEE7437A002BEBD1BDE838
:104FD000F84011F0DBBC00BF3C35002037B5154D63
:104FE000044601A811F0DFFB2B6803B124B901A826
:104FF00011F0E2FB03B030BD0022A34222720DD1BA
:10500000597A5C6941B15A7224B120462C6011F082
:10501000BDFCECE7FFF7D6F92C60E8E71A46194625
:105020008C425B6901D15361E1E70A46002BF6D15E
:10503000DDE700BF3C35002010B5094B00221946C2
:105040001C68844202D89C68844205D80132152A23
:1050500003F10803F4D1FEE701EBC201087910BDAA
:1050600090A40100054B93F8E1202AB993F80C2194
:1050700012B9012283F80C21704700BF8835002047
:10508000014B93F8E000704788350020F0B5BDF87B
:1050900014409DF818709DF81C509DF820E040B118
:1050A000012814D00122002398180138B0FBF2F037
:1050B000F0BD87F00107E30003EBC703183305EBEE
:1050C0004E0503EBC5034FF47A714B43ECE7501FD9
:1050D000012803F1040302D80C2C38BF0C24D1B9E9
:1050E000A2F10B0CBCF1010F8CBF4FF0000C4FF084
:1050F000010CE800002F00EB0E100CBF142500255A
:10510000A0EB8200062A4FEA82062844A2F1020799
:105110000AD835460DE00C2A08BF01290CBF4FF014
:10512000010C4FF0000CE4E70830BCF1000FF0D0A8
:10513000BD000028ACBF2E182E1C701E062A90FB46
:10514000F5F003FB00448CBF0C340E34022909D85F
:10515000A30001334FF47A72BB405343024A52F822
:105160002120A1E7FFDE00BF84A4010043F609531C
:1051700010B5B0FBF3F241F6846403FB120104EBBB
:105180000124B4FBF3F40A4B04EB0224C3F8E4005B
:10519000C4F30741062011F040FCC4F307210720A7
:1051A00011F03BFCE1B20820BDE8104011F035BC25
:1051B0008835002070B5114B93F8E160012E1CD1A9
:1051C000122011F035FC10F001040D4D0BD005211B
:1051D000122011F022FC2B687BB19B696BB1304629
:1051E000BDE8704018470421122011F016FC2B680E
:1051F0001BB19B690BB12046F2E770BD88350020DA
:10520000CC36002070B5314C94F8E010012902D062
:10521000022952D070BD94F8E130CBB1012BF9D105
:1052200094F82F31002BF5D00221122011F0F5FB5C
:10523000274B1B68002BEDD05C69002CEAD01C20AA
:1052400011F0F6FB234600F03F00BDE87040184720
:10525000A36E6BBB84F80C1194F80D31002BD9D1DF
:105260001C48FFF7BBFE0123112084F80D3111F01B
:10527000DFFB4008404284F80E011B2011F0D8FBF0
:1052800005461C2011F0D4FB43F6095340EA0525DE
:10529000C0B258432D0A80305D4305EB10250C2029
:1052A000C4F8105111F0C4FB400984F81401B1E7AF
:1052B00094F80C31002BADD0CEE794F8E130012BFF
:1052C000A8D194F82F31002BA4D0AEE78835002068
:1052D000CC3600204035002070B5404C94F8E050AA
:1052E000012D02D0022D59D070BD94F8E130CBB120
:1052F000012BF9D1FFF7AAFD0028F5D03848FFF7B8
:105300006DFE8021122011F088FB002384F8E0302C
:10531000344B1B68002BE7D0DB68002BE4D0BDE8E2
:1053200070401847FFF792FD0028DDD02E48FFF7A8
:1053300055FEB4F81631B4F8182113439BB23BB9AB
:1053400094F8FE00E8B92A4604F58B7111F054FA7E
:10535000B4F81801B4F8162194F81A312349121A36
:105360009A42014413DB5A1ED2B2002011F044FAD3
:10537000B4F8182194F81A31013A1344A4F81831FA
:10538000B2E7322011F054FBA4F81601E0E7D2B2E4
:10539000002011F031FAB4F81631EFE794F8E1503B
:1053A000002DA1D1FFF752FD01289DD0B4F81801BE
:1053B000B4F8163194F81B210C491B1A934201448E
:1053C00007DD284611F025FA94F81B31B4F81821AE
:1053D000D3E7DAB2284611F01CFADCE78835002062
:1053E00058350020CC360020403500205D57002085
:1053F00073B58E4C00238DF8073094F8E030012B04
:1054000004D0022B00F0FC8002B070BD94F8E130B3
:105410003BB3012BF8D14021122011F0FEFA1220EB
:1054200011F006FB8DF807009DF80730804D13F052
:10543000200F00F093802021122011F0EEFA94F852
:1054400032310BB984F8E0307A48FFF7C7FD2B689A
:10545000002BD9D01B69002BD6D002B0BDE870401C
:10546000184794F80031724D93B33F2011F0E0FAE1
:105470008DF807009DF807309B0729D40B213E20AB
:1054800011F0CBFA10213F2011F0C7FA6948FFF75D
:10549000A5FD94F802618EB96748FFF79FFD84F877
:1054A000E0602B6813B11B6903B198470023A4F88F
:1054B0000C31A4F81831A4F81631A5E70D2011F02D
:1054C000B7FA40F04001C9B20D2011F0A6FAE8E7A2
:1054D000B4F81621B4F81811584E52EA01030AD153
:1054E00094F8FE0050BB5649012211F085F9B4F83A
:1054F0001811B4F81621521AD2B23144002011F01A
:105500007BF9B4F816314B48A4F81831FFF766FD63
:1055100094F80231C3B9484884F8E030FFF75EFDE3
:105520002B68002BC2D09D68002DBFD094F90E21AE
:10553000B4F8161141480023A847B7E7322011F00C
:1055400077FAA4F81601D2E70D2011F071FA40F0B5
:105550004001C9B20D2011F060FAE1E7192011F005
:1055600067FA40B20230801084F83C011A2011F032
:105570005FFA94F93C21D4F8E460324940F30B130C
:10558000002A9BB237DA92B28E428CBF9D3AA43A7F
:10559000104403441BB21320A4F83E3111F048FA22
:1055A00084F84001102011F043FA01460D2011F05B
:1055B00034FA94F840212149002011F01DF994F8A3
:1055C00032310BB984F8E0301A48FFF707FD2B6839
:1055D000002B3FF419AF9D68002D3FF415AF94F9EF
:1055E0003C31B4F93E2194F840111448AC4602B065
:1055F000BDE8704060478E428CBF9D38A438C8E734
:105600001148FFF7EBFC94F8E130012B03D108219E
:10561000122011F002FA002384F8E030044B1B68DA
:10562000002B3FF4F1AE1B6815E700BF8835002062
:10563000CC36002058350020403500205D57002032
:105640009E36002040DD4A1F7035002070B50920CD
:1056500011F0EEF90546062011F0EAF9064607209A
:1056600011F0E6F90402082011F0E2F944EA0644D8
:1056700043F609530443C0B25843240A5C438030C4
:10568000002104EB1024092011F0C7F93B2011F090
:10569000CFF940F04001C9B23B2011F0BEF93B20E8
:1056A00011F0C6F98206FAD40C48FFF75FFD3B20E3
:1056B00011F0BEF940F04001C9B23B2011F0ADF944
:1056C0003B2011F0B5F98306FAD42946092011F0E0
:1056D000A4F92046BDE87040FFF748BD00A1BC33E7
:1056E00008B50A48FFF77AFC0948FFF777FC094834
:1056F000FFF774FC002011F0A6F9002011F069F802
:10570000054B002283F8E02008BD00BF583500207B
:1057100070350020403500208835002008B5084845
:10572000FFF75CFC0748FFF759FC0748FFF756FCFA
:10573000012011F088F9054B002283F8E02008BD14
:105740005835002070350020403500208835002075
:1057500037B5604C8DF8071094F8E1300546DBB1A1
:10576000012B45D000255C48FFF738FC5B482946F3
:1057700011F02AF994F8E130002B76D0012B00F0DB
:105780008C800223554884F8E030FFF7B5FB0320F6
:1057900011F059F903B030BD94F8FE009DF80710E0
:1057A000A4F81831A4F81611F0B901220DF107017F
:1057B00011F02FF89DF80720531E3F2B04D94848BD
:1057C000294611F040F820222946002084F81B21A8
:1057D00011F01FF8B4F8182194F81B31D4F80451D3
:1057E0001344A4F81831BEE7322011F016F9E1E7AE
:1057F00094F8313133206BB311F01AF900F0BE0187
:10580000332011F00AF919213B2011F006F99DF817
:10581000071084F84011222011F0FFF800210E201B
:1058200011F0FBF800210D2011F0F7F8012011F024
:10583000FFF830F0F80304D1FFF770FF012011F0FA
:10584000EAF829469DF80720002010F0E2FFD4F87E
:10585000345188E711F0ECF800F0BE0141F001018D
:10586000332011F0DAF81D21CEE7402011F0E0F8E6
:1058700000F00301402011F0D0F8412011F0D8F8D9
:1058800000F03E01412011F0C8F8352011F0D0F8A9
:1058900000F03F0084F81A0173E794F82F3173B1D8
:1058A000F521112011F0B9F8402011F0C1F800F0F5
:1058B000330141F04001402011F0AFF861E7F721DA
:1058C000112011F0AAF8402011F0B2F800F03F01C9
:1058D000EFE700BF883500205835002070350020E4
:1058E0005D570020F8B5804C07468048FFF776FBEF
:1058F00094F8E15015B3012D47D00026012384F818
:10590000E03037B17A48394611F05EF87848FFF751
:10591000F3FA94F8E130002B40F0DC80052011F020
:1059200092F8002E40F0DE80D4F80811714811F092
:105930004BF8BDE8F8406F48FFF7DEBA402094F816
:10594000026111F075F800F0030141F00C014020F4
:1059500011F063F8412011F06BF860F03E01C9B21C
:10596000412011F05AF8352011F062F800F03F00A4
:1059700084F81A011E210D2011F04FF8A4F80C51E3
:10598000A4F81851A4F81651B8E794F8313133202F
:105990003BB311F04DF840F04101C9B2332011F092
:1059A0003CF819213B2011F038F8D4F82031082BAD
:1059B0004FF031007DD811F03BF800F07F0131202D
:1059C00011F02BF80021302011F027F8D4F8203105
:1059D000082B1CD8DFE803F01036404A545E686894
:1059E000680011F025F800F0BE0141F001013320FC
:1059F00011F013F81D21D5E72F20482111F00DF8E3
:105A0000D4F8E40000F5F4500230FFF7AFFB94F84F
:105A10002F3194F83261002B52D01D21112010F04B
:105A2000FCFF402011F004F800F03301402010F09A
:105A3000F4FF00210F2010F0F0FF00210D2010F0E6
:105A4000ECFF5BE72F20442110F0E7FFD4F8E400DF
:105A500000F522503430D8E72F20442110F0DDFF2C
:105A6000D4F8E40000F574500430CEE72F20442130
:105A700010F0D3FFD4F8E40000F5A2405E30C4E794
:105A80002F20442110F0C9FFD4F8E40000F5F440C1
:105A90001230BAE72F20442110F0BFFFD4F8E40001
:105AA00000F52240C630B0E740212F2010F0B5FFAE
:105AB000ADE710F0BDFF60F07F01C9B23120F5E71E
:105AC0001F21112010F0A9FF402010F0B1FF00F0BD
:105AD0003F01ABE726B10520BDE8F84010F0B3BFA9
