:1000000000C20020CD3600001B660100B93600009A
:10001000B9360000B9360000B93600000000000013
:100020000000000000000000000000000537000094
:10003000B9360000000000000D390000B93600009C
:100040008939000045F30000893900008939000032
:100050008939000089390000893900008939000098
:100060008939000089390000893900008939000088
:100070008939000089390000893900008939000078
:100080008939000089390000893900008939000068
:100090008939000089390000893900008939000058
:1000A0008939000089390000893900008939000048
:1000B0008939000089390000893900008939000038
:1000C0008939000089390000893900008939000028
:1000D0008939000089390000893900008939000018
:1000E0008939000089390000893900008939000008
:1000F00089390000893900008939000089390000F8
:1001000080F0004002E000BF81F0004142001FBFCC
:100110005FEA410392EA030F7FEA226C7FEA236CD5
:100120006AD04FEA1262D2EB1363C1BFD2184140CA
:1001300048404140B8BF5B42192B88BF704710F060
:10014000004F40F4000020F07F4018BF404211F003
:10015000004F41F4000121F07F4118BF494292EA6B
:10016000030F3FD0A2F1010241FA03FC10EB0C0097
:10017000C3F1200301FA03F100F0004302D5494224
:1001800060EB4000B0F5000F13D3B0F1807F06D3D1
:1001900040084FEA310102F10102FE2A51D2B1F1C9
:1001A000004F40EBC25008BF20F0010040EA0300BE
:1001B0007047490040EB0000013A28BFB0F5000F3E
:1001C000EDD2B0FA80FCACF1080CB2EB0C0200FAF4
:1001D0000CF0AABF00EBC25052421843BCBFD04043
:1001E0001843704792F0000F81F4000106BF80F4BD
:1001F00000000132013BB5E74FEA41037FEA226C80
:1002000018BF7FEA236C21D092EA030F04D092F04A
:10021000000F08BF0846704790EA010F1CBF00207E
:10022000704712F07F4F04D1400028BF40F00040DB
:10023000704712F100723CBF00F50000704700F0FB
:10024000004343F0FE4040F4000070477FEA226222
:1002500016BF08467FEA23630146420206BF5FEAF3
:10026000412390EA010F40F4800070474FF00003F3
:1002700004E000BF10F0004348BF40425FEA000CBA
:1002800008BF704743F0964301464FF000001CE062
:1002900050EA010208BF70474FF000030AE000BFB8
:1002A00050EA010208BF704711F0004302D54042F6
:1002B00061EB41015FEA010C02BF84460146002068
:1002C00043F0B64308BFA3F18053A3F50003BCFA83
:1002D0008CF2083AA3EBC25310DB01FA02FC634430
:1002E00000FA02FCC2F12002BCF1004F20FA02F237
:1002F00043EB020008BF20F00100704702F120022A
:1003000001FA02FCC2F1200250EA4C0021FA02F28A
:1003100043EB020008BF20EADC7070474FEA40025E
:10032000B2F1FE4F0FD34FF09E03B3EB12620DD923
:100330004FEA002343F0004310F0004F23FA02F08D
:1003400018BF404270474FF00000704712F1610F34
:1003500001D1420205D110F0004008BF6FF000400B
:1003600070474FF0000070477BB972B90029BEBFDB
:1003700000204FF0004106E008BF00281CBF6FF0CE
:1003800000414FF0FF3000F057B8ADF1080C6DE9B7
:1003900004CE002909DB002B1ADB00F05FF8DDF842
:1003A00004E0DDE9022304B07047404261EB410103
:1003B000002B1BDB00F052F8DDF804E0DDE902233E
:1003C00004B0404261EB4101524263EB430370478A
:1003D000524263EB430300F041F8DDF804E0DDE94D
:1003E000022304B0404261EB41017047524263EB8B
:1003F000430300F033F8DDF804E0DDE9022304B044
:10040000524263EB4303704753B94AB9002908BF0E
:1004100000281CBF4FF0FF314FF0FF3000F00CB848
:10042000ADF1080C6DE904CE00F018F8DDF804E039
:10043000DDE9022304B07047704700BF034611F89E
:10044000012B03F8012B002AF9D17047034613F85A
:10045000012B002AFBD1181A013870472DE9F0470B
:100460008C468E46089E154604461946002B40F0E1
:10047000D080724547D9B2FA82F74FB1C7F1200355
:100480000EFA07FC20FA03F3BD4043EA0C0CBC4013
:100490004FEA154EA8B2BCFBFEF8230C0EFB18CC9D
:1004A00008FB00F943EA0C43994528D9EB1808F1F9
:1004B000FF3204D2994502D9A8F102022B44A3EBE2
:1004C0000903A4B2B3FBFEFC0EFB1C330CFB00F0D3
:1004D00044EA0344A04214D92C190CF1FF3304D28E
:1004E000A04202D9ACF102032C44241A43EA024090
:1004F0001EB1FC40002334607360BDE8F0874246C3
:10050000DDE76346F1E7002A79D0B2FA82F3002BE7
:100510003FD01946C1F1200302FA01F52EFA03F289
:100520000EFA01FE20FA03F343EA0E034FEA154EDA
:1005300000FA01F4B2FBFEFCAFB20EFB1C201A0C59
:100540000CFB07F842EA004290455AD9AA180CF170
:10055000FF3004D2904502D9ACF102002A44A2EB4C
:1005600008029BB2B2FBFEFC0EFB1C220CFB07F741
:1005700043EA02439F4246D9EB180CF1FF3204D202
:100580009F4202D9ACF102022B44DB1B42EA00423B
:1005900002E0AEEB020301224FEA154EAFB2B3FB0D
:1005A000FEFC200C0EFB1C330CFB07F840EA034357
:1005B00098452AD9EB180CF1FF3004D2984502D99E
:1005C000ACF102002B44A3EB0803A4B2B3FBFEFC86
:1005D0000EFB1C330CFB07F744EA0344A74216D971
:1005E0002C190CF1FF3304D2A74202D9ACF102035B
:1005F0002C44E41B43EA00400F46114678E71F21D4
:1006000088E76046ABE76246BFE76046DBE76346E4
:10061000EFE7734506D916B9002108466DE7C6E92C
:10062000000EF9E7B3FA83F787B9734501D3824225
:1006300007D8841A6EEB030301209C461EB90021E3
:100640005BE73846FAE7C6E9004CF8E7C7F1200C4B
:10065000BB4022FA0CF51D4320FA0CF12EFA0CF3E4
:100660000EFA07FE41EA0E014FEA154900FA07F4B7
:10067000B3FBF9F81FFA85FE09FB18300B0C08FBD9
:100680000EFA43EA00439A4502FA07F240D9EB1802
:1006900008F1FF3004D29A4502D9A8F102002B4498
:1006A000A3EB0A0389B2B3FBF9F809FB183308FB83
:1006B0000EFE41EA03418E452CD9691808F1FF333B
:1006C00004D28E4502D9A8F10203294443EA00402E
:1006D000A0FB0298A1EB0E014145CE46434602D352
:1006E00006D14C4504D2B9EB020E68EB0503013884
:1006F000002EA4D0B4EB0E0261EB030101FA0CFC56
:1007000022FA07F34CEA0303F940C6E9003196E701
:100710004046C5E74346D9E738B5194C9DF810E087
:1007200094F828C01CF0010521D163F3420C40016C
:10073000237DA1834FEACE0E0EF0180E00F02000AC
:1007400040EA0E0023F0380303430E48237591213D
:10075000A2FB000384F828C001FB023106A3D3E901
:100760000023FFF751FEC4E90800284638BD0C25D8
:10077000284638BDAFF300808D49FD1A0700000000
:10078000700F0020002AE7842DE9F043044600F1B1
:10079000150190F82800237D3B4DC0F3400060F325
:1007A00086138DB023750DF0EBFA227DA38B3748AD
:1007B000246102F07902002722759121A3FB000237
:1007C000C4E90277277001FB03212DA3D3E900239D
:1007D000FFF71AFE626A2E4B651BA3FB053502F17B
:1007E000090398428EBF19463A460146226261606B
:1007F00006460DF08BFA0694A38B00F109072348F7
:100800009121A3FB000201FB0321224B0793224B02
:1008100005936368049302234FF000080B930DF1D6
:100820002C0917A3D3E90023CDF82090CDF80C8034
:10083000FFF7EAFD104619464FF47A720023FFF7DE
:10084000E3FDC5F347150235EDB2CDE901600321A3
:10085000CDF800803B462A4640460DF007FA49464F
:100860000DF0CAFC40B994F8283043F0010384F835
:1008700028300DB0BDE8F0830C200DB0BDE8F0834A
:100880008D49FD1A07000000700F0020002AE78440
:10089000A38B2EBAD9DD000071F10000000000002A
:1008A0002DE9F041C468237923F001038CB0237152
:1008B0000F4605460FF002FD00200FF023FD00213A
:1008C00008460FF011FD0820002225210FF078FDC9
:1008D00001200DF01DFD002864D01C300FF09AFDA2
:1008E000494B0B930BA80FF057FD484940F25B6052
:1008F0000FF0FEFD2079C0F3410025300FF000F825
:10090000434821460FF0AEFC23799B062DD5962057
:100910000FF018FF00231A46194618460FF04AFE3A
:10092000D4F800802E6840460EF0D8FF06446A686E
:1009300006F1090100200FF011FF0FF0CFFF0FF0BB
:10094000A9FE20460EF0DAFC811CC9B240463246B0
:100950000EF0C6FF054648BB57B120460EF08CFF8F
:1009600010BB00200CB0BDE8F0810FF083FED7E78C
:100970002369002BF1D0274D0795274D059540F2AF
:10098000F3150093CDE90377CDE90177069433465B
:100990000122394608950DF069F910F0FD0FDCD001
:1009A00000DEDAE700DE98E700DEDAE71B4A1C49E2
:1009B0001C4840F2E51315F005F91B4B0721A5FB78
:1009C000030301FB05310EA3D3E90023FFF71CFD50
:1009D00016490246164815F0F5F8002585F31188EA
:1009E000BFF36F8F0323184602DF124821460FF032
:1009F00039FC0FF029FD6FF08B00B3E7AFF30080F7
:100A000000CA9A3B00000000D6BE898E555555009D
:100A100061FE0000F5FB000005FC000040A801009D
:100A20008CA80100F8A701008D49FD1ABCA801009F
:100A300090A8010081FC000010B500F017F80446F2
:100A400058B9084A0848012115F00DFD2246022137
:100A5000012000F049FA002010BD012100220846C3
:100A6000F7E700BF54AA0100EC9F010010B51B4A34
:100A70001B48032115F0F7FC1A4800F0FDFB00F0BD
:100A800027FC20B9184A1648022115F0ECFC00F0AA
:100A9000A5FD164A1648052100F0B4F9144A154878
:100AA000012100F015FA00F04BFD38B9124A0C484C
:100AB000012115F0D8FC0024204610BD00F0CCFF29
:100AC00008B90E4AF3E701F069F8044608B90C4A80
:100AD000EDE700F08FF814F0F3FDEDE76AAA0100EE
:100AE000EC9F0100810E000099AA0100C3AA010039
:100AF000BC130020F0120020C7AA0100F0AA0100D8
:100B000013AB010008B5054814F0C2FD044800F01D
:100B1000CFF9034A034B136008BD00BFBC1300208C
:100B2000F0120020A0A1010010B50349044614F002
:100B3000EEFD0023237510BDDC1500200449016182
:100B400000220449C260C0E90122016002757047B9
:100B5000C3AA0100ACA10100F0B583B0044600AF08
:100B60000D4604292CD8DFE801F0032325272900AE
:100B70001749204614F0BBFD204614F0CAFD6E460E
:100B800088B06A46134BCDE905304FF40073ADF8D9
:100B90001C30114B7B6042F8103F104800234FF48B
:100BA000E65102F01BF8B54625750C37BD46F0BD81
:100BB0000B49DEE70B49DCE70B49DAE70B49D8E7DD
:100BC0000B4A06480B46012115F056FCEDE700BF25
:100BD000DC1500205AAB010003000001EC9F01006E
:100BE000D0150020C4150020B8150020AC15002039
:100BF0003BAB010000487047E815002008B50C48E1
:100C0000FFF79CFF0A490B4800F05AF808490A48C8
:100C100000F074F80649094800F084F804490848CF
:100C200000F0C6F8BDE808400149064800F0E0B809
:100C3000E8150020DC150020D0150020C415002088
:100C4000B8150020AC15002008B514F0D9FD0346F6
:100C5000054A0648032115F00FFCBDE808400022B4
:100C60000121032000F040B966AB0100EC9F0100B8
:100C7000032908B504D0042909D0022910D008BDE1
:100C8000FFF7B8FF0121BDE80840FFF765BF02216B
:100C9000084A094815F0E7FBFFF7ACFF0321F2E72C
:100CA0000121064A044815F0DEFBFFF7A3FF0421EB
:100CB000E9E700BF7FAB0100EC9F010093AB0100AF
:100CC000024A8260024A416002607047B2AB010092
:100CD000B8A1010008B500220121022000F004F9AA
:100CE00000F0DCFE034A0448BDE80840032115F08B
:100CF000BABB00BFBAAB0100EC9F0100024A8260A0
:100D0000024A416002607047E0AB0100CCA10100E3
:100D1000024A0348032115F0A6BB00BFEAAB01005D
:100D2000EC9F0100024A8260024A41600260704703
:100D3000FDAB0100E0A10100032908B502D008299C
:100D40000AD008BD064B00221A70FFF753FF01219D
:100D5000BDE80840FFF700BFFFF74CFF0421F7E7AD
:100D6000B655002013B50F4C022000F0F7FA237897
:100D70000133DBB22370052200920B480B4A02219B
:100D800015F084FB2378042B04D902B0BDE8104091
:100D900014F060BC00220121032002B0BDE8104025
:100DA00000F0A2B8B6550020EC9F010009AC01008C
:100DB000024A8260024A4160026070471DAC010035
:100DC000F4A1010008B5084A0848012115F04BFBC1
:100DD000022000F0C3FA02210022084600F084F845
:100DE000BDE8084000F060BE28AC0100EC9F0100A7
:100DF000024A8260024A41600260704755AC0100BD
:100E000008A2010007B50B4600920349024600F014
:100E1000EFF903B05DF804FB6D5601001FB51446F1
:100E2000CDE90112C030002201A9039314F0A6FC01
:100E300048B9064A136801331360054A054823463A
:100E4000022115F019FB04B010BD00BF00160020F0
:100E500060AC010044A001001FB5C030CDE9011213
:100E6000012201A9039314F089FC18B9034A1368FD
:100E70000133136005B05DF804FB00BF00160020CD
:100E8000024B1B6803B11847704700BF04160020CF
:100E9000431E032B08D8054B53F8200028B1806867
:100EA000003818BF01207047002070470816002046
:100EB00010B50021054B0360044601718160C0221A
:100EC0000C3018F0FFFD204610BD00BF1CA2010031
:100ED0004B1E032B9FBF034B017143F8210082601F
:100EE000704700BF0816002070B504460D46FFF796
:100EF000CFFF48B1084B53F82410134688682A46A0
:100F0000BDE87040FFF78ABF044A05482346022126
:100F1000BDE8704015F0B0BA081600208AAC010098
:100F200044A0010070B505460C46FFF7B1FF48B17B
:100F3000054B53F82510134688682246BDE87040DB
:100F4000FFF78ABF70BD00BF08160020F8B5044641
:100F50000F4616461D4614F007FC069B0649A6647C
:100F6000C4E910370023204684F84C5023652246FC
:100F700000F074F92046F8BD19570100F0B51D4680
:100F8000134B1F688BB004460E46F7B11F22002199
:100F90000DF1090018F096FDAA88D4F80100B4F804
:100FA000053000901F2AADF8043028BF1F22237897
:100FB00029688DF806300DF109008DF807608DF86D
:100FC000082018F071FD6846B8470BB0F0BD00BFAF
:100FD0001C16002008B500200BF006F9034630B1BE
:100FE0000648074A012115F047FA002008BD0348CA
:100FF000044A032115F037FA0120F7E74CA001005D
:10100000ADAC0100C3AC0100014B1860704700BFDC
:101010001C16002030B5124D2C7885B0ECB9602339
:1010200001A801940F49ADF806303023C0E901440E
:10103000ADF808300BF060FE034638B10A4A0B48A1
:10104000012115F019FA204605B030BD01232B709F
:10105000074A0648032115F006FA0124F3E700BF0A
:10106000B75500207D0F0000D7AC01004CA0010057
:10107000F4AC010010B50B4C237883B10BF08CFE5F
:10108000034630B10848094A012115F0F5F900205E
:1010900010BD2070064A0448032115F0E4F9012030
:1010A000F6E700BFB75500204CA0010009AD0100D4
:1010B00025AD010010B50F4818F067F830B90E489B
:1010C0000E4A012115F0CFF9012010BD03F03EF9C1
:1010D000044638B10A4A03460121074815F0CCF905
:1010E0000220F2E70448074A032115F0BCF9204624
:1010F000EBE700BF949D01005CA0010042AD010040
:1011000084AD01009EAD010008B5054A05480221E5
:1011100015F0A9F9044B00221A70032008BD00BF86
:10112000AFAD01005CA00100B8550020014B18785C
:10113000704700BFB855002007B50B4B1878002347
:1011400070B10DF106000DF107018DF806308DF834
:10115000073015F042FB9DF80600002808BF0B2061
:1011600003B05DF804FB00BFB855002037B5054655
:101170000C46154818F009F810B3144B1B780BB344
:10118000FFF7DAFFA0420BD2FFF7D6FF104A00901C
:1011900023461048012115F079F9042003B030BD31
:1011A0000023E2B22946012003F044F80346002858
:1011B000F4D00848084A012115F05EF90520EDE752
:1011C0000120EBE70320E9E7949D0100B8550020DA
:1011D000F4AD01005CA0010034AE010008B5034C81
:1011E000236803B1984713F067FAF9E72016002047
:1011F0002DE9F043154D2C6889B0072C109E07D9B6
:10120000134A1448012109B0BDE8F04315F02BB989
:10121000671C2F600025CDE903350B460E4900926F
:10122000CDE901554FF000084FF000094FF4046577
:10123000CDE906894FF4006205FB041113F03EF876
:10124000314609B0BDE8F04312F0B2BF24160020C9
:1012500056AE010064A001000060002010B5C0E996
:101260000E1204490022044618F0FBFA04F1380378
:10127000636310BD4B57010010B50F4B0F4C88B086
:1012800018602378B3B9002000210E22CDE90601B1
:10129000CDE90232CDE9003304930949094B0A48EC
:1012A0004FF4007213F00AF80849074812F080FF63
:1012B0000123237008B010BD20160020B95500206E
:1012C000C05D0020DD110000900600207AAE010014
:1012D0002DE9F04101251D4C04262F46013E02D187
:1012E0002846BDE8F08154F8080C17F04EFF38B9D5
:1012F000174A1848012115F0B6F800250834EDE723
:1013000054F8080C14F8041C34F8023CDA07D0F83E
:1013100010C0D0F8088054BF43F4B01383F4D01346
:1013200013F0010F23F48012DCF8003007FA01FEFD
:1013300014BF4EEA030323EA0E03CCF80030D8F8BA
:10134000003098470028D9D0034AD2E728A20100EC
:101350008BAE010054A001009EAE0100022808D807
:10136000044B03EBC0010122097953F8300014F05B
:1013700078BA704720A20100022808D8044B03EB7A
:10138000C0010022097953F8300014F06ABA70479E
:1013900020A20100022803460AD8064A52F830006B
:1013A00002EBC30201211379994083685B691847F6
:1013B000704700BF20A201002DE9FF4105461D4EE8
:1013C000304617F0E2FE044648B91B4A1B4801218B
:1013D00015F049F80024204604B0BDE8F081102241
:1013E0000021684618F06EFB0227D6F808808DF8B9
:1013F0000C70D8F808300195694630469847104A75
:1014000000280346106005DA0E4A0C48012115F049
:1014100033F8DFE7D8F800303946304698470346BE
:1014200008B1094AF1E7094A04482B46032115F09F
:1014300023F8D0E7249D0100C3AE01006CA0010099
:1014400048010020DDAE0100FDAE010013AF010038
:10145000044B1968002903DB03488368DB681847DD
:10146000704700BF48010020249D010008B50146D7
:1014700000220A48002317F0EDFE024640B1084A58
:1014800013884FF6FF718B4201D00133138008BDE2
:10149000BDE8084003210220FFF744BDE418002006
:1014A000AC5500200346024A0248022114F0E4BF72
:1014B00046AF0100D4A0010030B502298FB0084624
:1014C00008D003290BD0012932D10FB0BDE830403C
:1014D000FFF7A0BD0FB0BDE83040FFF7CBBD28221D
:1014E000002104A818F0EEFA4FF6FF74134800220A
:1014F000002304A912F01EFB08B10FB030BD9DF807
:101500001830122BF2D99DF8195007A8FF2D0FC8DB
:10151000ECD1BDF81A50A542E8D1CDE90001CDE9E2
:1015200002239DF917106A4604A800F083F8DDE74E
:101530000FB0BDE83040FFF7B5BF00BFE418002092
:1015400010B520230E490F48282217F06FFE0E4ACF
:101550000E480321FFF756FC0C4A0D480221FFF705
:10156000B7FCFFF737FD044640B10A48FFF74CFDD2
:10157000094A0A482023032114F07EFF204610BDAB
:10158000BA550020E418002089AF0100F4160020AD
:10159000281600206D1400005CAF0100D4A00100EB
:1015A000014B1888704700BFAC55002008B50548AE
:1015B00014F06EF80448FFF77BFC034A034B1360FA
:1015C00008BD00BFF41600202816002040A201002C
:1015D000014812F085BB00BF7405002070B51048AB
:1015E000104D4FF0FF324FF0FF3312F007FB002495
:1015F00060192034B4F54A6F0CD10B4B00221A80CD
:10160000FFF7E6FF094A0A48BDE87040642303215A
:1016100014F032BF2022002118F054FAE8E700BF8E
:101620007405002018190020AE55002095AF010068
:10163000E4A001002DE9F04106460F461546274873
:10164000274C4FF0FF324FF0FF3312F0D7FA4FF034
:101650006508B8F101082AD1214C6523013B31D13D
:101660001F4C652122460139A36930D11D490A88E2
:101670004FF6FF7082421CBF01320A801A4A1B4893
:10168000022114F0F9FE30682060B388A3800123A2
:101690002377A77195E80F0004F1080686E80F008C
:1016A00014F0CCF8A061BDE8F041FFF791BF237FB3
:1016B00033B106223146204618F00CFA0028E8D053
:1016C0002034C6E7227F002ADDD02034C6E79069A7
:1016D000984238BF14462032C5E700BF7405002089
:1016E00018190020AE550020B5AF0100E4A001009C
:1016F0002DE9F8430E46074698B3B9B114F09EF8A9
:10170000814619484FF0FF324FF0FF3312F076FA5E
:10171000DFF858C04FF0650E4FF00008BEF1010E23
:1017200001D0B04505D3FFF753FF46463046BDE82C
:10173000F8839CF81C308BB1DCF81830A9EB03035C
:10174000B3F5616F0AD865460FCD07EB48140FC497
:1017500095E80F0084E80F0008F101080CF1200C57
:10176000DCE70646E2E700BF7405002018190020F8
:1017700010B54FF0FF324FF0FF33084812F03EFA39
:10178000074A65230024013B03D1FFF721FF2046D0
:1017900010BD117F0C44A4B22032F4E77405002080
:1017A00018190020014B1888704700BFAE55002063
:1017B0000346024A0248022114F05EBE46AF010011
:1017C000DCA001002DE9F04F01298DB0084602AFE1
:1017D0000CD08B1E012B00F22481FFF7A7FC58B917
:1017E000914A0221914814F03EFE01E0FFF78CFC83
:1017F0002C37BD46BDE8F08FFFF79EFC0C28034652
:1018000007D80C2200928A4A0221884814F03EFE32
:10181000EEE7A0F10C040C2C01D8864AE1E78648DB
:101820006421FFF765FF786110B9844A0321D9E785
:10183000834D0D23B4FBF3F33B612B8801332B80E5
:1018400013F0FCFF3B692E88B8605C1E7B691C446A
:101850003B69B4FBF3F4FF2C28BFFF24E3B26D46D1
:101860008AB0FB6002AA774BBB6107F1180102F155
:10187000140014F00BF802F11800BE6114F006F821
:101880007B69BB6102F11C0014F000F82846BC61C2
:1018900013F0FCFF0523BB6142F8103F63486A4E1A
:1018A00000234FF4235101F099F9AD460025AA46D3
:1018B000FB68AB4203D1654B01221A7098E77B6944
:1018C000A3EB0A083B69984528BF98465FFA88F35E
:1018D0007B605B4BB3F800B0FFF762FE8146FFF719
:1018E00061FF0122594B3260FA681B78F271B9F13D
:1018F000FF0F5FFA88F228BF4FF0FF093272FF280E
:101900004D4AA6F804B083F0010328BFFF20DFF89A
:1019100038B186F80990B571B072F37202EB4A12D1
:101920004FF0000979685FFA89F38B4202F12002D7
:101930000BF10D0B11D34FF00D0909FB08F909F15B
:101940000C0949463046FFF711FC0135EDB2D0B322
:101950003F4A00942B46012157E712F81A3CBB7707
:1019600052E9080112F8183CFB7712F8173C87F887
:10197000203032F80E3CB983A7F82130B96852F80C
:10198000083CB861CB1A4FF6FF718B4228BF0B465B
:10199000A7F8233007F1180C0BF1FF33E646BEE839
:1019A0000300596007F120018E451860F44603F1E9
:1019B0000803F3D1DEF8000018609EF804101971D6
:1019C00009F10109AEE7EB468AB0786002AA214925
:1019D000B96102F1140007F1180113F057FF02F189
:1019E0001800BD6113F052FF02F11C00BC6113F03E
:1019F0004DFF5846C7F8188013F048FF02F1240045
:101A0000C7F8189013F042FF062142F8101FB96181
:101A100006487B684FF4435101F0E0F8C244DD46CC
:101A200046E7FFF7C5FEE3E6F8AF0100DCA00100E2
:101A300022B001006FB0010098250020AFB0010076
:101A4000B0550020E2B00100BA5A0020B95B002076
:101A50000AB1010028B1010008B50B4A0B48042166
:101A6000FFF7D0F9094A0A480321FFF731FAFFF7D7
:101A700021FB38B90748084A0F23032114F0FCFC66
:101A8000012008BD0020FCE78BB1010038330020A5
:101A90006C320020DCA0010052B10100014813F0BB
:101AA0004CBE00BF18320020014813F04CBE00BFEE
:101AB0001832002007B50A4813F0EAFD0948FFF77D
:101AC000F7F9084A084B1360084B0093084A094984
:101AD00009480123FFF73AFA03B05DF804FB00BFA1
:101AE000383300206C3200204CA2010083580100E2
:101AF000A0BB0D007EB10100183200202DE9F0419D
:101B000082B000AFFFF7A4FC0020FFF743FC194BA5
:101B10001A6801321A603C23B2FBF3F103FB112473
:101B200024BBFFF725FE0646FFF73AFD0546FFF703
:101B300039FEE8468AB003466A460F49059106A871
:101B4000314613F0ABFE294607A813F0A7FE19464D
:101B500008A8052313F0A2FE7B6042F8103F074857
:101B600023464FF4235101F039F8C5460837BD46E6
:101B7000BDE8F0812835002091B10100ECA0010002
:101B800001290B4601D1FFF7B9BF024A02480221E1
:101B900014F072BC46AF0100ECA0010008B50F4A7A
:101BA0000F480721FFF72EF90E480D4A0421FFF7D1
:101BB0008FF942F21070FFF7FFFB20B90A4A0B4879
:101BC000022114F050FC0A4813F0B7FD094A0748F7
:101BD000032114F048FC012008BD00BF2EB2010013
:101BE0004C36002080350020D4B10100ECA001006B
:101BF0002C35002000B2010007B50A4813F048FD5B
:101C00000948FFF755F9084A084B1360084B009341
:101C10000849094801234FF47A72FFF797F903B096
:101C20005DF804FB4C3600208035002058A20100EE
:101C30009358010019B201002C3500202DE9F84F0E
:101C40008A4600AF002974D004680E1F361BF508C1
:101C500026F0070604EB0608B8F802B01BF0010BEB
:101C600016D1E94688B06A46334BCDE905310323E6
:101C700042F8103F31485B464FF4C25100F0AEFFCE
:101C8000CD468BF31188BFF36F8F0423184602DF14
:101C90002946204613F005FE284434F83030C01A97
:101CA000854217D0E94688B06A46254BCDE9053A0A
:101CB000032342F8103F214800234FF4C25100F0A3
:101CC0008DFF0023CD4683F31188BFF36F8F04236C
:101CD000184602DFB8F8023023F00103A8F80230FA
:101CE0002946204613F0DDFD05EB000804EBC80390
:101CF0005B88DA0708D44146204613F01BFE4246B3
:101D00002946204613F05BFEA65BAE1B04EBC60320
:101D10005B88DB0709D43146204613F00BFE2A46C8
:101D20003146204613F04BFE35462946204613F037
:101D3000BDFDBD46BDE8F88F87B20100B4A001002B
:101D40005EB201002DE9F04F91B08407009302F0DC
:101D500004030293C2F3C20303F10103DDF868A098
:101D6000039205460E46059340F09D81041D002810
:101D70004AD101F00706341DC6F10806009B002772
:101D80005A1E4FF004084FF0FF3301930497B946F1
:101D9000BB4643460DB1009921600598002800F329
:101DA000D78090480099814203D38F488142C0F088
:101DB000CF80039911F0020CA4EB050040F0D6800F
:101DC000B9F10F0F00F2CF80002D00F0D68009F19D
:101DD00040010DEB010EC0F3870001990EF8200CB5
:101DE0000EF8101CBCF1000F00F0C38060F07F0003
:101DF0000EF8200C013709F10109C5F1080104347E
:101E000006914FF6DA7E8CE00729B7D86FF01B00F9
:101E100011B0BDE8F08F7A285BD84B280FD847283F
:101E200057D829282ED8252850D052D8202818BF76
:101E300023280CBF4FF0010B4FF0000B71E04C3822
:101E40002E2846D8DFE800F06D4545454545454517
:101E5000454545454845454545454545455645481B
:101E6000485656566D486A456D4518481845457F91
:101E70007C48454548457C0000204FF0000B4FF062
:101E8000040835E02A38C0B2012101FA00F010EA56
:101E90000E0F46D110F0625C2CD110EA010B40D03D
:101EA0006046013C4444B4FBF8F408FB04F425B15B
:101EB000A3EB050CA444B445A8D8002870D005991C
:101EC000013905915AF8041B009163E70199013922
:101ED00001914FF0000B24E012F8010C6C2834D172
:101EE00012F8023C00206C2B8346C8D14FF0080842
:101EF0004346D6E70AF1070A2AF0070A0734FAE848
:101F000002BC24F0070435B106982044B0423FF6E5
:101F10007DAFC4E900BC08344FF0000B4FF0080857
:101F2000434612F8010F002853D0BBF1000F7FF495
:101F300072AF2528F5D1019B013301934FF0010BBE
:101F40004FF00408ECE7584697E700208346A8E7DF
:101F5000039988077FF551AF601B4FF0010CB0F576
:101F6000007FFFF42DAF6FF0150051E74FF0000C2C
:101F7000F5E70498013004903DE7BCF1000F01D073
:101F8000013638E70298023600287FF434AF009813
:101F9000CDE90632FEF75AFADDE9063206442AE7B1
:101FA000042B08D10AF1040015B1DAF80010216001
:101FB00004348246B5E70AF1070323F0070303F16F
:101FC000080A1DB1D3E90001C4E90001083408235F
:101FD000A7E7631BB3F5806FC5D23DB9A6F108042E
:101FE000E01815E7F89B010080CE0100029A2860F6
:101FF0009B082B709DF81030AAB1EB70AF702FB119
:1020000008A80022C5F1010C91450ED1C5F10103CC
:102010000DF120084FF0000A01930DF1300BD1456E
:1020200012D1601BF4E66B70E8E710F8013B19066B
:1020300008D50CEB040EB64503F07F033FF6E6AE81
:1020400004F8013B0132DFE71FB198F90020002AB4
:1020500017DB029BD3B11AF80B2004F8012B0022E6
:10206000019B18191044B0423FF6D0AE98F800001A
:1020700004F8010B00990392204617F015FD039A0E
:1020800014440AF1010A08F10108C8E798F8002091
:1020900055F822300093029B45F822300098FEF755
:1020A000D5F9421CDCE76FF00D00B1E62DE9F04FE9
:1020B00097B000AFC7E90A3205468A4649B90378A6
:1020C0004678807800EB83002844564524D8A0EB5E
:1020D000050AD7F8803095F80280D7F8804003F0E1
:1020E0000103FB61EB787B62B8F1000F0CBF0024A9
:1020F00004F001041BB1D7F880309A0715D4A4B9B5
:10210000FB6A1BB1BA6A5146284698475646304684
:102110005C37BD46BDE8F08F441C2046FEF796F9BB
:10212000013020440AF1010ACFE7D7F88030C3F329
:10213000C0033B622B78BB619B003B616B687B619A
:10214000BB6905EB830BFB6A002B77D15646D8445D
:10215000BCB11C461BF8013B55F82300FEF776F98D
:10216000D7F88430013043B1D7F88830A34282BF1A
:10217000D7F8843023F814000134C3450644E9D16C
:10218000D846D7F8803013F0050F0CBF4FF0020B84
:102190004FF0010B4FF000097B6A9945B7D298F8D0
:1021A000013055F823A0AE4B9A4508F10208C0F063
:1021B0004B81AC4B3A6A9A452CBF002301230AB3EA
:1021C00018F8021C7869FB6213F0CEFCFB6AC8B1F8
:1021D000EA468AB06A46A44B05937B69CDE906318D
:1021E0004FF40073ADF82030A04B42F8103FA048E8
:1021F00000234FF4125100F0F1FC023ED54609F1E4
:102200000109C9E723B1FB6933B9A6EB0B06F6E771
:10221000D7F880309B07F2D55046FEF717F9D7F86C
:1022200084304BB1D7F888309C423FBFD7F8842028
:10223000431C22F8143001340644E0E7002C69D135
:10224000B8F1000F6CD0D7F8803058076BD5C14675
:1022500007F148004246594617F026FC0BEB0803ED
:10226000FB6000220233796A8A425ED3D7F880206D
:1022700095F801B0F969920704EB0B03DBB254BF88
:102280004FEA59020022002940F0A680D7F88010BA
:1022900011F0040F14BF494600216B70A970EA7059
:1022A0003969BA6AFB6A28469847061EFFF62FAFBF
:1022B000BB692B707B6AEB704946BA6AFB6A85F88A
:1022C00001B085F8028007F148009847B0F1000995
:1022D000C0F2B6803B697A6A786A03EB4201FB6818
:1022E000BA6A414403EB4000AAEB0101FB6A98473C
:1022F0000028C0F2A780B14409EB00064FF0000BA4
:1023000007F1380AA34569D30021BA6AFB6A084677
:102310009847FCE6444607F138004FF0000999E77A
:102320004446C1469AE7A14698E713F8016CDFF8E6
:1023300030C155F8260013F8021C6045C0F08A80B1
:10234000DFF820C16045386A2CBF4FF0000B4FF01A
:10235000010B38B17869C7E9013213F005FCD7E900
:102360000132F0B9BBF1000F1ED0F96949B1611C0F
:1023700004F1280007F13004041904F8206CCCB2F1
:102380000FE0D7F8801049070BD509F1280007F1B5
:10239000300C09F1010100EB0C0909F8106C5FFA2F
:1023A00081F9013202335EE7D7F880008007DED47E
:1023B00009F1280C07F1300EF44409F101000CF882
:1023C000101C07F1580151FA80F009F102095FFA77
:1023D00089F900F8106CE4E700215EE71BF80A3089
:1023E00087F8373055F82390D7F884302BB3D7F8D7
:1023F00088309B4521D2D7F8843033F81B80BA6AE5
:10240000FB6A012107F13700984700281ADB0644D0
:10241000B8F1000F06D14846FEF718F800F10108A0
:102420001FFA88F8BA6AFB6A41464846984700286E
:1024300008DB06440BF1010B64E74FF00008DEE710
:102440004E4664E6064662E63B6A002B3FF4E0AE89
:102450000023B5E6386A0028A6D04FF0000B79E7D4
:10246000F89B010080CE0100B4B20100040000011D
:1024700034A00100014B1860704700BF4C010020E0
:1024800080B505460E461746984612F093F9034666
:1024900001F08CFADFF81890044649F80030424603
:1024A00030463946A84754F8090001F019FA00BF30
:1024B000080000002DE9F047858B044628071746E1
:1024C0000CD501290CBF45F0100545F02005A5836A
:1024D00087F31188BFF36F8FBDE8F087022905F0FD
:1024E000070540F09480204613F0FFFD052864D8CE
:1024F00001A353F820F000BFD12400000F260000F4
:10250000BB2500007D25000097250000A9250000BF
:1025100001F007035A1F012A1FD8002221F00701EA
:10252000062BD4F8008089B2C4E9002209D14346C1
:1025300003E0E28B0132E2831B68002BF9D141F00A
:102540000201A183204613F0D0FD4FF000090028BE
:102550006DD041F02001A18369E0042B0AD121F064
:10256000070189B2A183204613F0BFFD10B141F0ED
:102570002001A1834FF00008C14658E02369D3F839
:102580000090A38B23F0070343F00603A3834FF0CF
:10259000000846464BE02369D3F80490A38B23F050
:1025A000070343F00403F1E72369D3F80890A38BF2
:1025B00023F0070343F00503E8E74FF00008C146A6
:1025C000E7E7012243F00803A38387F31188BFF3F1
:1025D0006F8F002A3BD1B8F1000F4AD1B9F1000F3B
:1025E00002D02D492046C847EFF31187202383F3FB
:1025F0001288BFF36F8FA38B23F008039BB2A383D2
:10260000D9063FD523F01002A28303F00705A6697F
:10261000A18B002EBFF67CAF0023D4F8008021F000
:102620000701C4E9003341F00101A1839946A38B5E
:1026300003F0070AAA4502D0A268002AC1D1B8F166
:10264000000F02D1B9F1000FDAD00022BAE7A16879
:102650000029C0D00D680029BDD04F6833465246CE
:102660002046B8471DB12B6829461D46F3E72B4687
:10267000FAE74146334652462046D8F8008013F028
:1026800060FDA8E79A067FF523AF23F02002A2831E
:1026900003F0070527E700BF6F6101002DE9F04750
:1026A000DFF85480044607464FF0010994FAA4F578
:1026B000B5FA85F509FA05F32E0108EB05156FEA61
:1026C000030A24EA03042B7B63B158F806301B6924
:1026D0006BB94644042273682846196807EA0A075A
:1026E00013F051FE002CE1D13846BDE8F0872846B2
:1026F00098470028F6D1ECE71CA1010010B50F495E
:102700000F4888B0002217F0ACF800220023CDE972
:10271000062300240E23CDE90334CDE90144094BFF
:10272000094900944FF44072084811F0C7FD084968
:10273000064811F03DFD204608B010BD55270000A9
:10274000080C0020852A000000A200204807002075
:1027500073B30100014811F045BB00BF880500209C
:102760002DE9F047804621480F4613F0ECFD064660
:10277000002833D000252846BDE8F087237B83B1AD
:102780002368DB680BB120469847636883F806909E
:1027900023681B69D3B9636804221968204613F0C3
:1027A000F2FD013610345445E8D3B8F1000FE2D001
:1027B000002DDFD02846FFF771FF0546002FF7D028
:1027C00000214FF4A47016F058FFF1E72046984717
:1027D0000028E0D009FA06F31D43E2E7044CDFF8D5
:1027E00014A005464FF00109DDE700BF4C3800207A
:1027F0001CA101002CA10100014B53F820007047DF
:1028000070A2010008B5034608462BB1044A1360C4
:1028100000F044FC002008BD6FF01500FBE700BF8E
:102820005001002010B5044C237813B9034811F06F
:10283000D9FA0123237010BDBA5B0020880500205F
:1028400010B504460B4813F07EFD5CB1BFF35B8FFF
:10285000094B53E8001F013943E80012002AF8D160
:10286000BFF35B8F054812F0EDFA0548BDE8104054
:1028700011F0B8BA4438002048380020080C002075
:1028800088050020064BBFF35B8F002253E8000F42
:1028900043E800210029F9D1BFF35B8F704700BFE7
:1028A0004438002070B5FFF7EDFF084C084E054690
:1028B000B44200D370BD63685B792BB123685B6859
:1028C00013B12946204698471034F1E71CA10100B6
:1028D0002CA1010010B5044C0449204613F07FFAE6
:1028E000034B1C6010BD00BFDC0400205CA2010093
:1028F0003C3800200D4A0E48002310B513700D4AD5
:1029000013600D4A4FF400411360FFF77BFFFFF7A0
:10291000E1FF0A4B0A4918468B4200D310BD1A1A30
:102920005C681211013222711033F5E7BB5B0020A5
:102930004363010044380020483800201CA10100F6
:102940002CA10100014600220148002313F068BABF
:10295000DC040020014813F0FFBA00BFDC040020B3
:10296000024B0146186813F052BB00BF3C380020F0
:10297000014813F087BB00BFDC04002070B52A4B70
:102980001B78002B4ED0FFF7E5FF0446002846D108
:10299000264B274D1B68002B19DD16F01AFF4FF44C
:1029A0007A76A0FB063206FB0121D5E90020DB0B7D
:1029B00043EA41439B1A4FEAD13140F2E93261EBDD
:1029C0000001934271F1000101D3FFF76BFFD5E9DC
:1029D000003213F57A7342F10002C5E900320CB3FC
:1029E000BDE87040FFF7C4BF6B685B7923B12B680B
:1029F00021461B68284698471035B542F4D3204637
:102A0000FFF7AEFFBFF35B8F0A4B53E8001F01399E
:102A100043E80012002AF8D1BFF35B8FB8E7064DF8
:102A2000064EEAE7002070BDBA5B00204438002063
:102A3000000C0020483800201CA101002CA101003E
:102A400070B50D4D297861B90120FFF789FE0B4C57
:102A50000B4EB44206D3FFF791FF0028FBD10123B0
:102A60002B7070BD63685B791BB1236820469B683F
:102A700098471034EDE700BFBB5B00201CA10100AC
:102A80002CA1010000212DE9F8430846FFF768FE5C
:102A9000044648B340F267684FF0000900F086FF33
:102AA0001A4B1B4A1B58136033B11A4B1B68092B76
:102AB00002DD194811F096F9184F002544B120465F
:102AC000FFF7ECFD044618B94FF0FF384FF0FF391F
:102AD000FFF754FF064628B9B5B90F4842464B46A2
:102AE00011F0BAF93546E9E74FF0FF384FF0FF39FA
:102AF000D4E72B689B691BB10022114628469847F2
:102B00001035BD42F5D3E8E7054DFAE708000000AF
:102B10004038002048380020880500202CA1010002
:102B20001CA1010013B5184813F00DFC174B1B78BE
:102B300073B1EFF31184202383F31288BFF36F8FF7
:102B4000FFF71CFF84F31188BFF36F8F02B010BD35
:102B50000F4B1B68002BF9D050B900220023CDE9A0
:102B600000230C484FF40042002312F033F9EDE744
:102B70000928EBD1074812F065F9074802B0BDE813
:102B8000104011F02FB900BF48380020BB5B002077
:102B900040380020080C00208805002010B5064BA6
:102BA0001B68044698472146A060044813F0B5F915
:102BB000BDE81040FFF7B6BF50010020DC04002044
:102BC000044A054B9B1AB1EBD30F34BF52F83100C6
:102BD00000207047EC9F01001CA101002DE9F04F7F
:102BE0008FB004AFC1F34A26B8600D4690467B60B3
:102BF0000C0D002E61D04FF000090A234FF0040B9A
:102C000007F1140AFE60C7E90799C7F824900093FA
:102C1000CDF808B0CDF804A007F11C03F9684A46C6
:102C20004046FFF743FAB0F5006F03461CD36C46ED
:102C30008AB0D8F8041004AB2448C3E9050140F277
:102C4000FF71D9611A464FF400711984204B42F884
:102C5000103F20484B464FF41251FFF7BFFFA546E7
:102C60002C37BD46BDE8F08FC0F30A0604F117000B
:102C7000184420F0070080083B60FFF763FE66F30E
:102C80005325044680B13B68134A00F11001C7E99F
:102C90000839F961CDE901AB0A230093F96807F11E
:102CA0001C034046FFF702FA66F353257B68B968B8
:102CB0002A46204613F087FBD2E704F1170020F0E4
:102CC00007008008FFF73EFE0446EDE788B30100E9
:102CD0000400000174A00100996301002DE9F04F88
:102CE00087B0DDE9127ADDE9106B054688461446A7
:102CF0009946BFB11021CDF800A03B465A460020AE
:102D0000CDF814A0FFF71EF8B0F5006F01460BD305
:102D1000194A1A4840F2FF73022107B0BDE8F04F8C
:102D200013F0AABB3946384604F0070305F0070440
:102D3000E40044EA831444EA402444EA065406F1D9
:102D40001700084420F0070080080391FFF7FAFD00
:102D5000054640B13FB10399CDF800A03B465A4625
:102D60001030FEF7EFFF4B4622464146284607B09B
:102D7000BDE8F04F13F027BBC7B3010074A00100FA
:102D8000406820B1034BC01A40F3CF0070474FF0AA
:102D9000FF307047EC9F01000EB403B503AB014652
:102DA00053F8042B0448019300F088FF02B05DF84B
:102DB00004EB03B0704700BFDB640100CA0605D412
:102DC0008B064CBF02490349FFF7E6BF704700BFBF
:102DD00000B40100FFB301002DE9F04F89B098461F
:102DE000159B0693DDE916A39DF85090189F059258
:102DF00004460D460493B9F1000F00F0B08007F4CB
:102E00008073079313F0BDFA07F0020B0246002807
:102E100074D078492046FFF7BFFF0646BBF1000F8C
:102E200008D017F0440F6BD173492A462046FFF7AC
:102E3000B3FF064407F0010353B1704B704953F8D8
:102E40002920704B2046002A08BF1A46FFF7A4FF2E
:102E500007F48073002B07F0080318BF4FF0000839
:102E6000002B79D0684B694953F829202046FFF799
:102E700093FF0546059B2BB165491A462046FFF78F
:102E80008BFF0544B8F1000F05D062494246204649
:102E9000FFF782FF054460483544069B1BB15F493C
:102EA000224612F030FE049B002B00F08E80DDF8ED
:102EB00010803946B8F1100F204628BF4FF0100897
:102EC000FFF77CFF0026B54250DC002633461AF897
:102ED000032053492046FFF75FFF0136102E4BD0E9
:102EE000710703D14F492046FFF756FF4645334649
:102EF000EDD34D492046FFF74FFFEEE706468DE73D
:102F00004A4B1868002894D0494B4FF47A7B1B68D1
:102F1000B5FBF3F54FF46163B5FBF0F100FB115520
:102F20000BFB05F54FF03C0CB1FBF3F203FB121168
:102F3000B5FBF0FEB1FBFCF300FB1E550CFB1311BF
:102F40000BFB05F50091B5FBF0F53A49CDE901E53C
:102F50002046FFF721FF6CE707F008058AE7B8F184
:102F6000010F0CBF2C4834484D4696E72D492046AA
:102F7000FFF712FF0136A6E7304920460026FFF78B
:102F80000BFF33461AF803202D49A2F120035F2BD3
:102F900028BF2E222046FFF7FFFE0136102E0DD04F
:102FA000720703D11F492046FFF7F6FEB0453346AE
:102FB000E8D81C492046FFF7EFFEEEE7049BB3EB91
:102FC0000803C24404937FF472AFB9F1000F0AD032
:102FD000FB0704D50B4A0A492046FFF7DDFE3946B8
:102FE0002046FFF7EBFE204609B0BDE8F04F13F096
:102FF00067BA00BF07B401000BB4010080A2010052
:103000004EB9010002B4010094A2010030B40100E5
:1030100036B401003AB40100DB640100BD3C00009D
:103020003FB4010047B4010045B40100543800200A
:103030005038002014B401001165010049B40100AA
:103040004BB4010073B542F20F738B4228BF0B469D
:1030500005680F4A04460521684612F01DF86368AA
:103060000C495B6806460B22284613F01BFA63687E
:103070003246694628465B6813F014FA63680649CD
:103080005B681B22284613F00DFA02B070BD00BF2A
:10309000E9BC01007DCA010061CA0100074A0021A4
:1030A0000123904206D8064A01B901231360054B5B
:1030B0001860704740085B000121F2E740420F00B2
:1030C0005038002054380020F8B5074F0D4604460C
:1030D0004618B44201D12846F8BD14F8011BBB685C
:1030E00001485B689847F4E7089D0100014B0360C5
:1030F00000207047DCA2010008B50348034A002104
:10310000121A13F082FA08BD90060020845D002098
:103110000748084A084908B5121A13F078FA074810
:10312000074A0849BDE80840121A13F070BA00BFF8
:10313000000000209006002080CE0100000000204A
:103140000000002080CE01002DE9F047064600AFC8
:103150000C46002936D0E9468AB0D1E90012A368AE
:103160006D462148E8464FF0050ACDE90501CDE955
:10317000072348F810AF1D48424600234FF4215161
:10318000FFF72CFDCD46D4E903126369AD4618481C
:10319000C5F810A0C5E90501C5E9072313480023B8
:1031A00042464FF42151FFF719FDCD46E369114A1C
:1031B0000E48012113F060F9A3690F4A0B48012161
:1031C00013F05AF9012E07D1EFF305830B4A074894
:1031D000103B314613F050F92146304610F08CFA7E
:1031E000BD46BDE8F08700BF88B40100ACA0010077
:1031F000B7B40100E6B40100F5B4010023B5010045
:1032000030BFFFF7FDBF00BF2DE9F0410B4EDFF8E7
:10321000308006EB0807CC1B05463246094920469C
:1032200016F042FCA01942460021083C16F04AFC68
:10323000C5F8A84007F10800BDE8F08100000000D3
:10324000040000002CA1010010B5204C20492148A9
:1032500013F0EAF9A36A990136D51E481E4913F006
:10326000E3F91E20A36ADA0104D51A481B4913F0BA
:10327000DBF91F20154CA36A1B0304D51548184918
:1032800013F0D2F92120A36A590304D51148154936
:1032900013F0CAF922200D4CA36A9A0304D50D48F5
:1032A000114913F0C1F92320A36ADB0304D50948AF
:1032B0000E4913F0B9F92420044A936A6FEA0343D4
:1032C0006FEA1343936210BD1D20CBE700ED00E0D1
:1032D00036B50100ACA001004EB5010061B501009A
:1032E0007BB5010099B50100BEB50100D8B501005C
:1032F00070B506460D46284C2849294813F094F924
:10330000A36AD9043CD52648264913F08DF9172025
:10331000A36A1A0504D52248234913F085F9182019
:103320001D4CA36A9B0512D51D48204913F07CF95A
:10333000A36BA26A100409D51D4A1948012113F094
:103340009BF81EB1A36A23F40043A3621920124C18
:10335000A36A590504D51248164913F065F91A20D5
:10336000A36ADA050ED50E48134913F05DF91B2048
:10337000094A936A43F47F43936200232B7070BD24
:103380001620C5E7A36A9B04F2D505480B4913F044
:103390004BF91C20ECE700BF00ED00E003B6010094
:1033A000ACA0010019B601002AB601003DB601002B
:1033B00056B601006BB6010086B601009EB601004C
:1033C0002DE9F843804689461746354D354936483C
:1033D00013F02AF9AB6ADE0627D53449324813F0D8
:1033E00023F91124AB6A1D0704D531492E4813F087
:1033F0001BF912242A4DAB6A980718D52D492A4883
:1034000013F012F96E6BAB6A190646D52A4A2648A4
:103410003346012113F030F8B9F1000F03D0AB6A45
:1034200023F08003AB62132403E01024DAE76FF08B
:1034300015061B4DAB6ADA0704D520491A4813F06C
:10344000F3F81424AB6A9B0604D51D49164813F003
:10345000EBF81524124B9A6AD50602D49A6A9007A3
:103460000AD55B68190507D54146304600F0EAF9F0
:1034700010B180F309880224094B9A6A920642BF70
:103480005A6A22F400525A629A6A42F0FF029A6221
:1034900000233B702046BDE8F8836FF01506C2E7B5
:1034A00000ED00E0CDB60100ACA00100E3B60100E4
:1034B0002AB6010016B701002EB7010044B701007B
:1034C0009EB601002DE9F041684B8AB0D3F8048024
:1034D00000AF0446C8F30806002585F31188BFF342
:1034E0006F8F02F07F43B3F17F4F07D102F00C03DF
:1034F000082B12D15E495F4813F096F800252C4640
:103500000023FB71F31E092B00F28F80DFE803F02C
:103510000A8588818D8D8D8D8D8B10074CBF0C4653
:103520000125EDE754495348504E13F07DF8002330
:10353000FB71F36A9A0705D550494E4813F074F8A9
:1035400000232DE0F36A002B01DA4D49F5E7F36A19
:103550005B00F5D54B49474813F066F87369A269DB
:1035600043F480737361BFF34F8FBFF36F8F32F8F3
:10357000023C726922F480727261BFF34F8FBFF315
:103580006F8F03F47F42B2F55F4F2BD1DBB2022B7A
:1035900028D123683C4A3748012112F06DFF236887
:1035A000FA79DAB907F1080604F1200C206861689D
:1035B000324603C2083464451646F7D17A6A002DB4
:1035C00050D0C2F3080121B96FEA52226FEA4222B9
:1035D0007A6207F108011846FFF7B6FD2837BD46A5
:1035E000BDE8F081214B9A6AD2B22AB1FA1D0121BD
:1035F0002046FFF7E5FE0EE09A6A12F47F4F04D0F2
:10360000F91D0120FFF774FE05E09B6AB3F5803FCA
:1036100096D3FFF719FE0346C2E7FA1D0021E7E73C
:10362000F91D0020EEE7194987E7194A194B18F4EC
:10363000F87FE8468AB008BF13466A461649CDE9C6
:1036400005134FF40073ADF82030103E134B07966E
:1036500042F8103F074800234FF41151FFF7BEFA1C
:10366000C5466DE76FF30802B2E700BF00ED00E06A
:1036700091B70100ACA00100BCB70100D3B70100B5
:10368000F4B7010002B8010021B801003DB8010003
:1036900063B7010078B7010061B8010004000001C0
:1036A000044B5A6942F010025A615A6922F008022A
:1036B0005A61704700ED00E0EFF30880EFF30981F5
:1036C00001B57246FFF7FEFE01BD00BF0B4880F357
:1036D00008880FF0BBF8202080F3118808484FF4C9
:1036E0000461401880F30988EFF314800221084335
:1036F00080F31488BFF36F8F00F06CF800C20020D5
:1037000040B400201EF0040F0CBFEFF30880EFF36D
:103710000980816911F8021C0229FFD001B57246A7
:1037200012F077FF01BD00BF40B2002807DB044A5A
:103730004109012300F01F00834042F82130704707
:1037400000E100E040B200280CDB4309064900F02C
:103750001F0020330122824041F82320BFF34F8F06
:10376000BFF36F8F704700BF00E100E0054B4209D7
:1037700000F01F0053F82220012303FA00F010404C
:10378000704700BF00E100E040B20028A8BF00F190
:10379000604001F10101B8BF064B4FEA4111ACBFD7
:1037A00000F5614000F00F00C9B2B4BF195480F8B1
:1037B0000013704714ED00E0044B054A23F07F032B
:1037C0009360BFF34F8FBFF36F8F7047000000000F
:1037D00000ED00E008B5FFF7EFFF0B4AD2F88830A4
:1037E00023F47003C2F88830EFF3148323F004034A
:1037F00083F31488BFF36F8FFFF77EFCFFF788FC1D
:1038000000F0B6F810F0B0F800ED00E042F8203C0F
:10381000009B42F81C3C0A49019B42F8183C029B61
:1038200042F8143C21F001014FF0807342F8043C4F
:1038300042F8081C0023203A0265C0F8AC307047FB
:10384000812400000A4A0346906878B113F1160FEC
:10385000D0F8980005D0A0F14002934205D38342EE
:1038600003D2814228BF002070470020704700BF6C
:103870007455002008B515460C4A0D4B9060D0F8E1
:10388000A8201A600E4600F0A3F82C4686F309889B
:103890000020044B98472046002100220023024CC0
:1038A000204700003F66010081240000745500207D
:1038B00084380020014B10221A61704700ED00E0AF
:1038C000054B5A699B689A421FBF044A536843F0EC
:1038D00080535360704700BF7455002000ED00E036
:1038E000084B9B6883420BD1EFF3058343B1064B32
:1038F0005A6842F080525A605A6A22F400425A6270
:1039000010F05EBF7455002000ED00E015498A6894
:103910004FF030001044EFF3098C80E8F01F2020B6
:1039200080F31288BFF36F8F0F4F4FF000664A6924
:103930008A603E60D2F8A8000C4C2060D2F8AC003F
:103940000023C2F8AC3080F3118804B5104600F0B3
:103950003FF8BDE8044002F1300090E8F01F8CF31E
:10396000098870477455002004ED00E08438002079
:10397000044800232021C2180133302B82F80013A1
:10398000F9D1704700E100E008B5EFF30583064A7E
:10399000103B02EBC30152F8330049688847BDE889
:1039A0000840FFF78DBF00BFB09D010001480068CF
:1039B0007047000084380020024B034A034801216D
:1039C00000F08CB80000042000000020DCA2010000
:1039D000D0F89830054A403B1360054B4021C2E9BE
:1039E00001131046012100F083B800BF8838002081
:1039F00000000B1508B503461048D0F89020C2F31C
:103A00000722013A934207D90D480E4A012112F0CC
:103A100033FD6FF0150008BDC0F898300A6822F039
:103A20001F021A4342F01002C0F89C208A6842F03C
:103A30000102C0F8A0201846EDE700BF00ED00E04D
:103A400094A0010078B80100F0B50E4685B01F467D
:103A500004460025B5420DDA606810B397B1431EE5
:103A600018420AD0104A11482B46012112F004FDD9
:103A70006FF01502104605B0F0BD1F28F2D921687D
:103A80000B42EFD12368019312F0FCFDA36801A95A
:103A90000343D0B20393FFF7ADFF10F1160FE7D049
:103AA000421C01350C34D5E79EB8010094A00100FA
:103AB000044B0522C3F89420BFF34F8FBFF36F8FE1
:103AC000704700BF00ED00E0BFF35F8F024B0022A4
:103AD000C3F89420704700BF00ED00E010B5034C20
:103AE00001232278FFF7B0FF207010BDBD5B0020DE
:103AF00008B50B4A00231278FFF7A6FF10F1160F46
:103B000007D0084A0021D2F89030C3F30723984227
:103B100000DB08BDC2F89800C2F8A0100130F2E73F
:103B2000BD5B002000ED00E02DE9F0435D485E49FB
:103B3000D0F890300C68C3F307239C4285B000F2A4
:103B4000AE80FFF7C1FF49680022944201F10C01E9
:103B50001AD1564F564D3C706846FFF7C7FA554C80
:103B6000554E81464FF00008C14520D13B784D4964
:103B70000020D1F89020C2F307229342C0F289803E
:103B8000FFF796FF002050E0C0F8982051F80C3C59
:103B900023F01F03134343F01003C0F89C3051F887
:103BA000043C43F00103C0F8A0300132CDE7009897
:103BB00000EB08114FEA081CCB682340B3F5000F57
:103BC00049D00BD8B3F5001F32D0B3F5800F37D0F2
:103BD000B3F5801F14D008F10108C5E7B3F1007FE9
:103BE00042D0B3F1805F48D0B3F1807FF3D150F879
:103BF0000C3088684A6812F045FD40F0887009E092
:103C000050F80C3088684A6812F03CFD40F088504B
:103C100040F43020039001A93878CDE90123FFF763
:103C2000E9FE002831DA6FF0150005B0BDE8F08339
:103C300050F80C3088684A6812F024FD3043E9E7F8
:103C400050F80C3088684A6812F01CFD40F0C060E3
:103C500040F40030DEE750F80C3088684A6812F013
:103C600011FD40F08270D5E750F80C3088684A6842
:103C700012F008FD40F48020CCE750F80C30886842
:103C80004A6812F0FFFC2843C4E73B7801333B70DD
:103C9000A1E7C1F89830C1F8A000013369E74FF0FF
:103CA000FF30C2E700ED00E0E8A20100BD5B0020AC
:103CB000000002110000F0FF00000811F0B587B00D
:103CC00007460E4614460021102268461D4615F090
:103CD000F9FE02238DF802302A46054B0193214656
:103CE0006846CDE9047611F001FA07B0F0BD00BFD7
:103CF000A566010008B5024B1B689847002008BD67
:103D000094380020034B044A1860937843F0020370
:103D100093707047943800205C01002008B5064974
:103D2000064821F00701C1F1005202F5802211F08E
:103D3000A9FE002008BD00BFB7D0002098380020A1
:103D400070B54169867A0B4D044659B1437ADB0759
:103D500006D4302303FB06539B6A1B689B68984775
:103D6000002363613020214600FB0650BDE870400F
:103D700015F059BBD0050020024B302202FB003069
:103D8000704700BFD0050020827A074B302101FB2D
:103D90000233DA6A93F822301B33801A23F00303CC
:103DA000B0FBF3F0704700BFD005002038B5074BDB
:103DB000827A302404FB02339B6AD3E901240C602D
:103DC0001568FFF7E1FF04FB005038BDD005002067
:103DD0002DE9F04385B005466846039190461C46A0
:103DE00015F0F9FCDDE90067EFF31189202383F377
:103DF0001288BFF36F8F2B8C002B43D0EA8B9A4233
:103E000025D90022002328460FF0BAFF0446F0B15E
:103E100089F31188BFF36F8F039B002B43D0324689
:103E20003B46684615F0FCFCA27A274B302101FB8B
:103E3000023320469B6A1B6803A91D68DDE9002345
:103E4000A847606180BB2046FFF77AFF26E0298CF7
:103E50004B1E2B8489F31188BFF36F8F95F82230A6
:103E6000EA8BEC6A1B3323F00303521A02FB034470
:103E7000154B164AEB1A1B115343A37295F82230C7
:103E8000E372C9E789F31188BFF36F8F2346424677
:103E900028460FF075FF04460028BDD100242046B7
:103EA00005B0BDE8F0836361012300252381039BF6
:103EB0006382E27A6560294604F1180015F002FE7B
:103EC00063692582E360EAE7D0050020ABAAAAAACD
:103ED00070B50D4C302500B970BD037A4668002BD3
:103EE000FAD0013BDBB20372002BF5D1C360436013
:103EF000837A05FB03435B6A13B198473046EAE7D0
:103F0000FFF71EFFFAE700BFD00500200C4B01228F
:103F1000C3F840254FF080434FF08051C3F8782517
:103F2000D1F83001082805D1D1F83411022908BF91
:103F3000C3F838260122C3F880250020704700BF4F
:103F400000E0014048B1054B054A1B68B3FBF2F3A2
:103F50005843044B43F00103184770479404002072
:103F600040420F0090A1010008B5054A054B1360BF
:103F700010463C2353600EF03FFD002008BD00BFFB
:103F8000A43800203FC00F00024B1B6803B1184744
:103F9000FF207047B43800200A4B0B4A0020C3E9C9
:103FA00000000A4B1A600A4A5A600A4A9A600A4A92
:103FB000DA600A4B0A4A9860C3E90020094ADA60CD
:103FC000704700BFD83800201D410000C8380020CD
:103FD0004940000085410000CD670100B83800204D
:103FE000893F0000CF67010030B50E4C8BB02D2308
:103FF000054668468DF8003004F074FA9DF90430E7
:104000002278934200D15DB1D8B2074B20701B6873
:1040100003B198472378054A0548032112F02CFA8A
:104020000BB030BDC05B0020B0380020EEB80100FE
:104030008CA00100034BBFF35B8F1868BFF35B8F4D
:10404000704700BFE03800202DE9F04383B042788C
:1040500002AF0446C2B1104600F0DAF96C4688B0EF
:1040600002AA294BC2E905304FF400739383274B12
:1040700042F8103F26484FF4E25112F0AAFBA54641
:104080000437BD46BDE8F083FFF7D4FFC00702D573
:104090001046FFF7A9FFFFF7CDFF81070ED4237F5E
:1040A00063B1BFF35B8F1B4B53E8001F41F002016C
:1040B00043E80012002AF7D1BFF35B8F6179237FB9
:1040C0004A1E5142514141EA4301134B1D685FFAB8
:1040D00081F8002DD4D0083D4FF6FF792B88E07889
:1040E0004B4501D083420AD1A16894F91030B4F94C
:1040F0000E200191217B00916E684146B047AD686A
:10410000002DBDD0083DE9E706B90100030000011C
:104110008CA00100E0380020D8380020B0B504465B
:10412000407800AFA0B100F073F96D4688B06A46E0
:104130000F4BCDE905304FF40073ADF81C300D4B3B
:1041400042F8103F0C484FF4E25112F042FBAD46EA
:10415000FFF770FFC30702D50020FFF745FF074BAD
:1041600062781A7006480FF03DFEBD46B0BD00BF34
:1041700021B90100030000018CA00100BF5B0020F9
:10418000A0050020B0B58AB00446407800AFE8B181
:1041900000F03EF96D4688B06A461D4BCDE905300A
:1041A0004FF40073ADF81C301A4B42F8103F1A4818
:1041B0004FF4E25112F00DFBAD46184B62781A70C5
:1041C00017480FF00FFE2837BD46B0BD2378052BEA
:1041D0000FD0092B19D0012BEFD1072338463B70A4
:1041E00004F080F97B680F4A0B48032112F044F970
:1041F000E3E70D4B1B6813B1617A207A98470B4AAD
:104200000548032112F02FF9D7E7094AF8E700BF64
:1042100039B90100030000018CA00100BE5B002041
:10422000B805002051B90100AC3800206FB9010079
:104230007FB901002DE9F04186B0804600AF1546F8
:104240001C460E4609B9002A6DD138484FF0FF329E
:104250004FF0FF330FF0D2FC3946284604F0E0F867
:10426000002840D000F0C8F86C4688B06A46304B51
:10427000CDE905304FF40073ADF81C302D4B42F8FA
:10428000103F2D484FF4E25112F0A3FA0023A54647
:1042900001253B71FB603B82381DBB7405F000FCBF
:1042A000044670B300F0A8F86D4688B06A46234B08
:1042B000CDE905304FF40073ADF81C301D4B42F8CA
:1042C000103F1D484FF4E25112F083FA2046AD46EC
:1042D00000F0AAF8044615480FF002FD20461837F2
:1042E000BD46BDE8F08154B1012C08D0144B3D828D
:1042F00093F9003087F80880FE600025CCE73C7118
:10430000F4E74FF0FF330F484FF0FF320FF0A4FDFA
:104310000D4B187808B100F099F8002D044618BF2D
:104320006FF00A04D7E76FF01504D7E760050020A7
:104330008FB90100030000018CA00100B4B9010095
:10434000C05B0020A0050020BF5B0020B0B5214D60
:10435000214922488EB02A7800AF03F097FEC0B101
:1043600000F04AF86C4688B06A461D4BC2E9053039
:104370004FF4007393831B4B1B4842F8103F4FF4DC
:10438000E25112F026FA6FF01500A5463837BD4607
:10439000B0BD04F03BF8044630B100F02DF86C4697
:1043A00088B06A46114BE1E7062307F10801287837
:1043B0003B7213F0A0F90E4BC0B218700D4B187081
:1043C00030233B7407F1100014237B6104F0A2F941
:1043D0002046DBE7B0040020B8380020C8380020B1
:1043E000CCB90100030000018CA00100EDB901006F
:1043F000C15B0020C05B002017289ABF024B53F816
:1044000020000248704700BFF0A301001BBA010062
:104410000F289ABF024B53F820000248704700BF94
:10442000B0A301002BBA01001628034608D8064A9B
:1044300052F8200030B9002B18BF6FF015007047FC
:104440006FF01500704700BF54A301000F2803460A
:1044500008D8064A52F8200030B9002B18BF6FF078
:10446000150070476FF01500704700BF14A30100DE
:1044700001480FF057BE00BFFC010020014B18603F
:1044800059607047E4380020024B1A685B6802608C
:104490000B607047E438002008B512F0AFF9024B0A
:1044A0001B68C01A08BD00BFEC380020014810F09E
:1044B000C9BC00BF2805002007B5014640F2E7301F
:1044C0004FF47A72002300EBC130490CFBF79CFFDC
:1044D00002460B4600210020CDE90001024810F001
:1044E00079FC03B05DF804FB2805002008B512F044
:1044F00085F9014B186008BDEC380020014B1868A5
:10450000704700BFEC38002010B5124CBFF35B8F32
:10451000022354E8002F012A03D144E80031002986
:10452000F7D1BFF35B8F0CBF0120002010D10A4BE5
:10453000DB6A9847002344F8443CBFF35B8F54E8A0
:10454000002F44E800310029F9D1BFF35B8F01202F
:1045500010BD00BF3839002050A4010010B5064B33
:104560005C68FFF7D1FF30B12CB100212046BDE8D7
:10457000104010F01FBD10BDF038002013B50D4BDA
:104580009A683AB10C4B5B6B0193002002B0BDE816
:10459000104018475C68FFF7B7FF40B13CB16FF0BF
:1045A0000401204602B0BDE8104010F003BD02B087
:1045B00010BD00BFF038002050A401002DE9F347E2
:1045C000284C9A46A36807460D46164683B1264BEB
:1045D00000205B6B9847E368CDE900A32A46D4F836
:1045E0000880206833463946C04702B0BDE8F087EE
:1045F00004F148020223D4F80490BFF35B8F52E821
:10460000001F012903D142E800300028F7D1BFF391
:104610005B8F9046E9D1236D1A78AA4288BF1D703E
:10462000236DE06C1A78394615F03EFA636D03B1DC
:104630001E80A36D0BB183F800A00B4BDB6A98477B
:1046400000216160BFF35B8F58E8003F48E800122B
:10465000002AF9D1BFF35B8F484602B0BDE8F047AE
:1046600010F0A8BCF038002050A40100F8B50446B2
:1046700000AF00680D4614F088FD26680346C0B9F7
:104680006C4688B031686A462948CDE905014FF487
:104690000071ADF81C10274942F8101F26484FF44E
:1046A000E251FEF79BFA6FF01205A5462846BD467B
:1046B000F8BDE38821792B43DA02D6F808E0D6F872
:1046C00010C007D513F4402F1EBF43F3000202F4BD
:1046D00040225340DCF800500120884023F480122F
:1046E000DB074CBF284325EA0000CCF80000DEF8C9
:1046F00000303046984705460028D7D0236819680F
:1047000023796C468AB06A460C48CDE907354FF4E8
:104710000073ADF824300A4BCDE9050142F8103F93
:10472000054800234FF43151FEF758FAA546BDE77E
:10473000B3BC010003000001FCA00100CCBC0100DF
:10474000050000011FB5104A138FFA2B084619D037
:10475000A3F5FA714B424B41590092F842300B4C91
:1047600083F001030393C0B2002302900193938F5F
:10477000009392F83B30646A92F83A200120A047F7
:1047800004B010BD0121E8E7F038002050A401007A
:1047900070B50D460F49BFF35B8F012451E8000F40
:1047A000002803D141E80046002EF7D1BFF35B8F0C
:1047B0000DD1094E41F8443CD4B2736D214601201D
:1047C00098472846B36A21469847002070BD6FF08D
:1047D0000F00FBE73839002050A401002DE9F0411B
:1047E0008AB001AC0646884617460021102205A86B
:1047F000CDE90144CDE90311012515F063F9214B01
:104800008DF821505B6B0994ABB323463A46414681
:104810003046FFF7BDFF044680BB39463046FFF700
:1048200091FF214600FA05F64FF4004440F2E730CC
:104830004FF47A720023E6FB0401FBF7E5FD024624
:104840000B46294605A810F05DFB041E0FDA0E4A40
:104850000E48294611F007FEFFF756FE38B94FF013
:10486000FF324FF0FF33294605A810F04BFB2046DE
:104870000AB0BDE8F0816FF01504F8E76FF00F049F
:10488000F5E700BFF0380020ECBC0100FCA00100FF
:10489000F0B58DB000248DF8072003AE0F4610222E
:1048A000214607A8CDE90366CDE90544012515F0A9
:1048B00009F9274B8DF829500B96BFF35B8F53E80E
:1048C000002FA24203D143E800510029F7D1BFF3E2
:1048D0005B8F39D10DF1070243E911649A601D4ED7
:1048E000149ADA60159A1A615F60FF21736D284689
:1048F0009847736B20469847DDE91223294607A89D
:1049000010F000FB041E15DAFFF7FEFD50B94FF062
:10491000FF324FF0FF33294607A810F0F3FA9DF855
:10492000074004E00C4A0D48032111F09CFD20468D
:104930000DB0F0BD069B002BF1DA094A0748294665
:1049400011F091FD069CF2E76FF00F04EFE700BF56
:104950003839002050A4010008BD0100FCA001006E
:1049600018BD010010B529B9FFF7CEFDE0B96FF011
:10497000150010BD0F4BBFF35B8F012453E8000FF0
:10498000002804D143E8004CBCF1000FF6D1BFF37E
:104990005B8F0BD1084C43E910120120636DFF219E
:1049A0009847636B002098470020E2E76FF00F0004
:1049B000DFE700BF3839002050A401002DE9F043A3
:1049C0008B8891F80E80FA2B8BB00C4688F001088A
:1049D0000ED0B3F5FA7F4ED07D2B4ED03448354AF9
:1049E000012111F049FD6FF015000BB0BDE8F08317
:1049F0000127314DBFF35B8F4FF0010955E8003FB0
:104A0000002B03D145E80092002AF7D1BFF35B8F5A
:104A10004AD12A4E2068F3689847E37A7BB322464E
:104A2000A5F1140304F1100C106851681D4603C56C
:104A3000083262452B46F7D1106828604FF47A633C
:104A400008930022237B0793CDE90522CDE90328B3
:104A500023890293E3790193A3790093F56994F98B
:104A60000A103B460120A847B36D607B9847FFF7CB
:104A70004BFD0020B9E70227BBE70027B9E7CDF8D7
:104A80002490227BB569CDE90732CDE90583CDE9D4
:104A900003330A2202922289CDE900323946E379B2
:104AA000A2794846A847DFE76FF00F009DE700BFF7
:104AB000FCA0010026BD01003839002050A40100EF
:104AC00038B5084611461A460B4BBFF35B8F0124DD
:104AD00053E8005F002D04D143E8004CBCF1000F07
:104AE000F6D1BFF35B8F04D1044BDB6B98470020FA
:104AF00038BD6FF00F00FBE73839002050A40100EB
:104B000010B5114BBFF35B8F002453E8002F43E82F
:104B100000410029F9D1BFF35B8F0C4943F8381CE1
:104B20000B490C4C43F8301C0B4943F8281C0B492B
:104B300043F8341C226843F8480CA3F1380090472E
:104B4000E36A9847002010BD383900205D45000019
:104B5000BD45000050A401007D4500008B680100A8
:104B6000034BC01A0011034B53F8203000201847A4
:104B700070390020100200200A4B834211D192FAB2
:104B8000A2F3B3FA83F362B1032B06D106480FF008
:104B9000C9BA052B05D10548F9E7042BF9D104481A
:104BA000F5E77047B49C010070390020903900206F
:104BB000803900200346024A0248012111F05CBC02
:104BC0004EBD0100F4A00100084B1A6912681205DD
:104BD00048BF80F0010028B19B68DB6803484FF4B0
:104BE000006118479B681B69F8E700BFB49C01008F
:104BF0000346024A0248012111F03EBC6BBD010090
:104C0000F4A001002DE9F04F464C474E83B0814699
:104C100000AF002559F82530002B79D0206814F01A
:104C2000B4FA0346D0B93F4A52F835206C4688B0F2
:104C300011686A463D48CDE905014FF40071ADF8B1
:104C40001C103B4942F8101F3A484FF4E251FDF75F
:104C5000C5FFA5460C37BD46BDE8F08F364B37493A
:104C600003EB051014F00BFCB4F8068020682179E2
:104C700048F48032D0F810E0D0F808A0DEF8003018
:104C80004FF0010C0CFA01FC18F0010F14BF43EABD
:104C90000C0323EA0C03CEF80030DAF80030984712
:104CA00094F804B02649D4F80080012202FA0BF3EC
:104CB000C6E90113D8F80810D1F81CA0BAF1000F0A
:104CC00005D1204A1B48012111F0CDFBC2E7314636
:104CD00040467B60D0470028F3DBE28802F04002C8
:104CE000D8F80800D8F81010D0F818A0BAF1000FC2
:104CF0000ED009687B680B42134B0CBF42F0B862C0
:104D000082F07072134059464FF0A0724046D0476F
:104D10000135032D04F1080406F10C067FF47AAF87
:104D200098E700BFE4A401004C39002089BD0100D0
:104D300003000001F4A0010070390020614B000065
:104D4000794B0000A0BD01004000000610B58AB0FC
:104D50000DF1070306930123CDE9073109920223E0
:104D600006AACDE903328DF80700029205930448A4
:104D70000449836802AA1C6804ABA0470AB010BDAE
:104D8000789D0100C0A4010013B50446002140F63F
:104D9000CD4014F072FC0020FFF716FF002140F612
:104DA000CD4014F06AFC01220DF107014220FFF70B
:104DB000CDFF002809DA0F4A0F48012111F053FBFB
:104DC0006FF00404204602B010BD9DF807300B4A76
:104DD0000948032111F050FB2046FFF791FE041E05
:104DE00005DA074A0448012111F03DFBEAE70024F7
:104DF000E8E700BFBDBD0100F4A00100D9BD01007E
:104E0000F5BD010010B504460D4814F0BEF970B1AF
:104E10000C4814F0BAF950B10B484FF4D011FFF719
:104E200025FC58B92046BDE81040FFF7ADBF074844
:104E3000074A012111F017FB6FF0120010BD00BFEF
:104E4000789D0100B49C0100DCA40100F4A00100E5
:104E500018BE010010B588B00DF1070304930123BB
:104E6000CDE9053104AB60F07F00029302238DF899
:104E700007000792039304480449836802AA1C6848
:104E80000023A04708B010BD789D0100C0A4010018
:104E900013B50023044601220DF107014D208DF8C2
:104EA00006308DF80730FFF751FF002806DA1D4A5B
:104EB0001D48012111F0D7FA02B010BD9DF807304E
:104EC00023F0070343F004030F2C6FF003028DF867
:104ED00007302346A8BF0F239342B8BF1346DBB267
:104EE000002C9DF80620D5BF04331343134343F031
:104EF0007003D8BFDBB201220DF1060109208DF845
:104F00000630FFF7A7FF002801DA084AD0E70122A0
:104F10000DF107014D20FFF79DFF0028CCDA044A70
:104F2000C6E700BF2DBE0100F4A0010043BE010092
:104F30005DBE010013B509480469836801A95B6877
:104F4000984720B9236801985840C0F30010002802
:104F5000D4BF0020012002B010BD00BFB49C0100EE
:104F6000074B08491A6843F2390001FB0200186038
:104F70006FF00043B0FBF3F3C3EBC373C01A704789
:104F80000C0200206D4EC641014B1860704700BFF7
:104F90000C02002030B530B10A4D01444FF0FF3310
:104FA000884201D1D84330BD10F8012B534008226C
:104FB00043F30004013A2C4092B284EA5303002ADE
:104FC000F6D1EDE72083B8ED044A13680BB1002158
:104FD00059724361106011F03CBD00BFA039002040
:104FE00037B5044601A811F041FC6CB1154D2A6893
:104FF000134673B963682360012323816AB9FFF7FD
:1050000075FA2046FFF7E0FF01A811F038FC03B065
:1050100030BD9C42F8D05B69EBE7FFF73DFA2368AF
:105020002A681844206013689842EAD3536913B978
:1050300054616361E8E719688842F9D91A465B69E7
:10504000F5E700BFA0390020F8B5FFF757FA1C4C70
:105050000546FFF74BFA2368A3B1471B1E462D1ADE
:10506000716929B95A692260DA68197242B9FEE792
:105070000A68BA428CBF521900220A607669EFE7CB
:1050800018699047002623682BB9206880B9F8BDBD
:1050900018699047F7E71D68FFF7FEF98542236816
:1050A000F3D25A692260DA681E72002AF0D1FEE754
:1050B000437A002BEBD1BDE8F84011F0CABC00BF29
:1050C000A039002037B5154D044601A811F0CEFBDC
:1050D0002B6803B124B901A811F0D1FB03B030BD96
:1050E0000022A34222720DD1597A5C6941B15A72F1
:1050F00024B120462C6011F0ACFCECE7FFF7D6F9A8
:105100002C60E8E71A4619468C425B6901D153616D
:10511000E1E70A46002BF6D1DDE700BFA039002009
:1051200010B5094B002219461C68844202D89C68BD
:10513000844205D80132152A03F10803F4D1FEE7B1
:1051400001EBC201087910BD08A50100054B93F8D9
:10515000E1202AB993F80C2112B9012283F80C211D
:10516000704700BFEC390020014B93F8E000704716
:10517000EC390020F0B5BDF814409DF818709DF88A
:105180001C509DF820E040B1012814D001220023DA
:1051900098180138B0FBF2F0F0BD87F00107E3008A
:1051A00003EBC703183305EB4E0503EBC5034FF4C0
:1051B0007A714B43ECE7501F012803F1040302D836
:1051C0000C2C38BF0C24D1B9A2F10B0CBCF1010F8F
:1051D0008CBF4FF0000C4FF0010CE800002F00EBEB
:1051E0000E100CBF14250025A0EB8200062A4FEA02
:1051F00082062844A2F102070AD835460DE00C2A9F
:1052000008BF01290CBF4FF0010C4FF0000CE4E780
:105210000830BCF1000FF0D0BD000028ACBF2E1844
:105220002E1C701E062A90FBF5F003FB00448CBF79
:105230000C340E34022909D8A30001334FF47A72DA
:10524000BB405343024A52F82120A1E7FFDE00BFD2
:10525000FCA4010043F6095310B5B0FBF3F241F68C
:10526000846403FB120104EB0124B4FBF3F40A4B46
:1052700004EB0224C3F8E400C4F30741062011F054
:105280002FFCC4F30721072011F02AFCE1B208200B
:10529000BDE8104011F024BCEC39002070B5114B72
:1052A00093F8E160012E1CD1122011F024FC10F0C3
:1052B00001040D4D0BD00521122011F011FC2B68BB
:1052C0007BB19B696BB13046BDE870401847042143
:1052D000122011F005FC2B681BB19B690BB1204615
:1052E000F2E770BDEC390020303B002070B5314C46
:1052F00094F8E010012902D0022952D070BD94F830
:10530000E130CBB1012BF9D194F82F31002BF5D03E
:105310000221122011F0E4FB274B1B68002BEDD07B
:105320005C69002CEAD01C2011F0E5FB234600F05C
:105330003F00BDE870401847A36E6BBB84F80C11AA
:1053400094F80D31002BD9D11C48FFF7BBFE012387
:10535000112084F80D3111F0CEFB4008404284F852
:105360000E011B2011F0C7FB05461C2011F0C3FBEA
:1053700043F6095340EA0525C0B258432D0A803050
:105380005D4305EB10250C20C4F8105111F0B3FB60
:10539000400984F81401B1E794F80C31002BADD02A
:1053A000CEE794F8E130012BA8D194F82F31002BEF
:1053B000A4D0AEE7EC390020303B0020A439002017
:1053C00070B5404C94F8E050012D02D0022D59D018
:1053D00070BD94F8E130CBB1012BF9D1FFF7AAFDF4
:1053E0000028F5D03848FFF76DFE8021122011F01B
:1053F00077FB002384F8E030344B1B68002BE7D0A8
:10540000DB68002BE4D0BDE870401847FFF792FD41
:105410000028DDD02E48FFF755FEB4F81631B4F859
:10542000182113439BB23BB994F8FE00E8B92A4611
:1054300004F58B7111F043FAB4F81801B4F8162191
:1054400094F81A312349121A9A42014413DB5A1E66
:10545000D2B2002011F033FAB4F8182194F81A31BE
:10546000013A1344A4F81831B2E7322011F043FB9B
:10547000A4F81601E0E7D2B2002011F020FAB4F847
:105480001631EFE794F8E150002DA1D1FFF752FD5E
:1054900001289DD0B4F81801B4F8163194F81B21F6
:1054A0000C491B1A9342014407DD284611F014FAF7
:1054B00094F81B31B4F81821D3E7DAB2284611F07A
:1054C0000BFADCE7EC390020BC390020303B00202F
:1054D000A4390020C25B002073B58E4C00238DF8E8
:1054E000073094F8E030012B04D0022B00F0FC8050
:1054F00002B070BD94F8E1303BB3012BF8D14021EC
:10550000122011F0EDFA122011F0F5FA8DF80700D3
:105510009DF80730804D13F0200F00F0938020217C
:10552000122011F0DDFA94F832310BB984F8E03032
:105530007A48FFF7C7FD2B68002BD9D01B69002BD9
:10554000D6D002B0BDE87040184794F80031724DD3
:1055500093B33F2011F0CFFA8DF807009DF8073084
:105560009B0729D40B213E2011F0BAFA10213F20CD
:1055700011F0B6FA6948FFF7A5FD94F802618EB9FB
:105580006748FFF79FFD84F8E0602B6813B11B6943
:1055900003B198470023A4F80C31A4F81831A4F8FB
:1055A0001631A5E70D2011F0A6FA40F04001C9B26E
:1055B0000D2011F095FAE8E7B4F81621B4F81811A7
:1055C000584E52EA01030AD194F8FE0050BB5649E6
:1055D000012211F074F9B4F81811B4F81621521A16
:1055E000D2B23144002011F06AF9B4F816314B48B8
:1055F000A4F81831FFF766FD94F80231C3B94848A2
:1056000084F8E030FFF75EFD2B68002BC2D09D6868
:10561000002DBFD094F90E21B4F816114148002393
:10562000A847B7E7322011F066FAA4F81601D2E7CE
:105630000D2011F060FA40F04001C9B20D2011F0C8
:105640004FFAE1E7192011F056FA40B2023080100B
:1056500084F83C011A2011F04EFA94F93C21D4F858
:10566000E460324940F30B13002A9BB237DA92B25E
:105670008E428CBF9D3AA43A104403441BB21320BF
:10568000A4F83E3111F037FA84F84001102011F0EF
:1056900032FA01460D2011F023FA94F840212149F5
:1056A000002011F00CF994F832310BB984F8E03095
:1056B0001A48FFF707FD2B68002B3FF419AF9D68D0
:1056C000002D3FF415AF94F93C31B4F93E2194F824
:1056D00040111448AC4602B0BDE8704060478E42AD
:1056E0008CBF9D38A438C8E71148FFF7EBFC94F84D
:1056F000E130012B03D10821122011F0F1F9002330
:1057000084F8E030044B1B68002B3FF4F1AE1B68BB
:1057100015E700BFEC390020303B0020BC390020E9
:10572000A4390020C25B0020023B002040DD4A1F5C
:10573000D439002070B5092011F0DDF905460620A6
:1057400011F0D9F90646072011F0D5F90402082016
:1057500011F0D1F944EA064443F609530443C0B2B8
:105760005843240A5C438030002104EB10240920B4
:1057700011F0B6F93B2011F0BEF940F04001C9B27A
:105780003B2011F0ADF93B2011F0B5F98206FAD4B7
:105790000C48FFF75FFD3B2011F0ADF940F04001F0
:1057A000C9B23B2011F09CF93B2011F0A4F983060B
:1057B000FAD42946092011F093F92046BDE870403B
:1057C000FFF748BD00A1BC3308B50A48FFF77AFCD3
:1057D0000948FFF777FC0948FFF774FC002011F037
:1057E00095F9002011F058F8054B002283F8E020CD
:1057F00008BD00BFBC390020D4390020A4390020E6
:10580000EC39002008B50848FFF75CFC0748FFF7B3
:1058100059FC0748FFF756FC012011F077F9054BBA
:10582000002283F8E02008BDBC390020D4390020D4
:10583000A4390020EC39002037B5604C8DF80710F2
:1058400094F8E1300546DBB1012B45D000255C48DA
:10585000FFF738FC5B48294611F019F994F8E1305C
:10586000002B76D0012B00F08C800223554884F861
:10587000E030FFF7B5FB032011F048F903B030BD6D
:1058800094F8FE009DF80710A4F81831A4F816113A
:10589000F0B901220DF1070111F01EF89DF8072063
:1058A000531E3F2B04D94848294611F02FF82022D7
:1058B0002946002084F81B2111F00EF8B4F81821B5
:1058C00094F81B31D4F804511344A4F81831BEE7FE
:1058D000322011F005F9E1E794F8313133206BB350
:1058E00011F009F900F0BE01332011F0F9F8192187
:1058F0003B2011F0F5F89DF8071084F840112220A4
:1059000011F0EEF800210E2011F0EAF800210D2030
:1059100011F0E6F8012011F0EEF830F0F80304D1B0
:10592000FFF770FF012011F0D9F829469DF80720F4
:10593000002010F0D1FFD4F8345188E711F0DBF8E3
:1059400000F0BE0141F00101332011F0C9F81D2122
:10595000CEE7402011F0CFF800F00301402011F015
:10596000BFF8412011F0C7F800F03E01412011F0CE
:10597000B7F8352011F0BFF800F03F0084F81A01A5
:1059800073E794F82F3173B1F521112011F0A8F8C5
:10599000402011F0B0F800F0330141F04001402008
:1059A00011F09EF861E7F721112011F099F84020DD
:1059B00011F0A1F800F03F01EFE700BFEC39002043
:1059C000BC390020D4390020C25B0020F8B5804CDF
:1059D00007468048FFF776FB94F8E15015B3012D98
:1059E00047D00026012384F8E03037B17A483946A1
:1059F00011F04DF87848FFF7F3FA94F8E130002BF6
:105A000040F0DC80052011F081F8002E40F0DE80AF
:105A1000D4F80811714811F03AF8BDE8F8406F4821
:105A2000FFF7DEBA402094F8026111F064F800F04C
:105A3000030141F00C01402011F052F8412011F017
:105A40005AF860F03E01C9B2412011F049F8352002
:105A500011F051F800F03F0084F81A011E210D20CA
:105A600011F03EF8A4F80C51A4F81851A4F81651FE
:105A7000B8E794F8313133203BB311F03CF840F0F3
:105A80004101C9B2332011F02BF819213B2011F04C
:105A900027F8D4F82031082B4FF031007DD811F0D1
:105AA0002AF800F07F01312011F01AF8002130208F
:105AB00011F016F8D4F82031082B1CD8DFE803F0D9
:105AC0001036404A545E6868680011F014F800F01F
:105AD000BE0141F00101332011F002F81D21D5E78C
